:100000000C948D060C94AE060C94AE060C94AE06C1
:100010000C94AE060C94AE060C94AE060C94AE0690
:100020000C94AE060C94AE060C94AE060C94D4411F
:100030000C94AE060C94323E0C94AE060C94AE06B4
:100040000C94AE060C94E9450C94AE060C94AE06E6
:100050000C94AE060C949E1C0C94AE060C947E1C64
:100060000C94AE060C9424160C94E2150C94AE0677
:100070000C94AE060C9450440C94AE060C94AE0650
:100080000C94AE060C94AE060C94AE060C94AE0620
:100090000C94AE060C94AE060C94AE060C94AE0610
:1000A0000C94AE060C94AE060C94CF190C94AE06CC
:1000B0000C94AE060C94AE060C94AE060C94AE06F0
:1000C0000C94AE060C94AE060C94AE060C94AE06E0
:1000D0000C94AE060C94AE060C94AE060C94AE06D0
:1000E0000C94AE06680D28152815730D28152815D3
:1000F0007D0D8A0D970DA40D2815A80D2815B60D98
:100100002815C00DCA0DF50D281528152815D40D74
:10011000DF0DEA0D0E1431146014311464147714D9
:100120006A1470144526452645264526502659262C
:1001300062266B2674268B26A226B926D026D926BF
:10014000E226EB26F42607271027192722272D273A
:100150003627452756276527742785279827A727F9
:10016000B027B927C227CB27D427DD27E827F127D7
:10017000F827FF2706280F281628D937DC37E1375C
:10018000E437E737EA37ED37F037F337F637F93743
:100190000538053805380538053805380538053877
:1001A000FF37FC370238084AD73B3BCE016E84BC90
:1001B000BFFDC12F3D6C74319ABD56833DDA3D00C1
:1001C000C77F11BED9E4BB4C3E916BAAAABE00000A
:1001D00000803F05A84CCDB2D44EB93836A9020CE8
:1001E00050B9918688083CA6AAAA2ABE00000080C1
:1001F0003F000C941B450C947D0D0C94D40D0C9475
:10020000F3370C94F4260C9419270C94E8270C94DB
:1002100031140C94ED370C9428150C948B260C9407
:1002200005380C9445260C94EA0D0C9450260C9439
:1002300045270C94F9370C94B0270C9402380C9491
:1002400016280C94B60D0C942D270C9422270C9490
:10025000D9260C94F0370C9407270C94A2260C9402
:1002600060140C94EA370C94CA0D0C9464140C942A
:10027000E7370C9410270C94680D0C94730D0C94B4
:1002800074270C94FF270C942F450C94A7270C94EB
:1002900062260C94B9270C946B260C94FF370C94AF
:1002A00065270C94C2270C9459260C9485270C942E
:1002B000D4270C9406280C94D0260C94CB270C94AD
:1002C000970D0C94C00D0C94F50D0C94E4370C9420
:1002D0008A0D0C9436270C94E1370C9470140C940E
:1002E000F6370C946A140C94DF0D0C9474260C945D
:1002F000A80D0C9498270C94A40D0C940F280C9422
:1003000077140C9456270C94B9260C94DC370C9473
:10031000EB260C94D9370C94E2260C94F8270C9415
:10032000F1270C940E140C94DD270C94FC372F0D40
:100330000A002F003E0D0A003A002C003A002C0063
:100340003A003C50726F62653A003C4673657276C3
:100350006F003C436865636B003C416C61726D00EB
:100360003C486F6D65003C486F6C64003C52756E94
:10037000003C5175657565003C49646C65000D0A6B
:100380000025002C0025000D0A007C002C007C00BC
:100390007D0D0A003A302C302C302C002C007B00D4
:1003A0005D0D0A005B302E394B2E332E362C204A41
:1003B000616E20203420323031372031343A3233EC
:1003C0003A303220284B65794D6520323536302958
:1003D000203A000D0A003D00244E005D0D0A002069
:1003E0004600205400204D3800204D3900204D3566
:1003F00000204D3400204D3300204D3200204D317F
:1004000000204D3000204739340020473933002088
:10041000473931002047393000204732300020472B
:100420003231002047363600204732300020473234
:10043000310020473139002047313800204731371B
:10044000002047005B473830005B4733005B473292
:10045000005B4731005B4730005D0D0A005B544C88
:100460004F3A005D0D0A002C005B4739323A005DBF
:100470000D0A002C003A003330003238005B470090
:100480005D0D0A004E4F5420464F554E44002C003F
:100490005B5052423A000D0A002028757365206CAB
:1004A0006F61642063656C6C2C20626F6F6C290037
:1004B0000D0A2434323D0020286D6167617A696E2F
:1004C000652067617020656E61626C65642C2062D6
:1004D0006F6F6C29000D0A2434313D0020286D61B6
:1004E00067617A696E6520676170206C696D6974F7
:1004F0002C206D6D29000D0A2434303D0020286623
:100500006F7263652073656E736F72206C657665BC
:100510006C2C2028302E2E3235352929000D0A2446
:1005200033393D0020286465636179206D6F64650F
:100530002C2028302E2E33292900290D0A24333867
:100540003D0020286D6963726F7374657073203A83
:1005500020000D0A2433373D002028686F6D696E36
:10056000672070756C6C2D6F66662C206D6D290090
:100570002028686F6D696E67206465626F756E63B1
:10058000652C206D736563290D0A2433363D0020E8
:1005900028686F6D696E67207365656B20632C201A
:1005A0006D6D2F6D696E290D0A2433353D002028AD
:1005B000686F6D696E67207365656B207A2C206D9E
:1005C0006D2F6D696E290D0A2433343D0020286893
:1005D0006F6D696E67207365656B20792C206D6D7A
:1005E0002F6D696E290D0A2433333D002028686F72
:1005F0006D696E67207365656B20782C206D6D2F9B
:100600006D696E290D0A2433323D002028686F6D14
:10061000696E6720666565642C206D6D2F6D696E4F
:10062000290D0A2433313D00290D0A2433303D00C1
:100630002028686F6D696E672064697220696E7624
:10064000657274206D61736B3A002028686F6D6964
:100650006E67206379636C652C20626F6F6C290D67
:100660000A2432393D00202868617264206C696D6B
:100670006974732C20626F6F6C290D0A2432383D27
:10068000002028736F6674206C696D6974732C2068
:10069000626F6F6C290D0A2432373D002028696E85
:1006A00076657274206C696D69742070696E732C44
:1006B00020626F6F6C290D0A2432363D00202869B4
:1006C0006E76657274207374657020656E61626CFD
:1006D000652C20626F6F6C290D0A2432353D002095
:1006E000286175746F2073746172742C20626F6F4F
:1006F0006C290D0A2432343D0020287265706F7217
:100700007420696E636865732C20626F6F6C290DAD
:100710000A2432333D00202861726320746F6C65B7
:1007200072616E63652C206D6D290D0A2432323D95
:100730000020286A756E6374696F6E20646576693F
:100740006174696F6E2C206D6D290D0A2432313D64
:10075000002028737465702069646C652064656C82
:1007600061792C206D736563290D0A2432303D00B8
:10077000290D0A2431393D00202864697220706FE8
:10078000727420696E76657274206D61736B3A00C5
:10079000290D0A2431383D002028737465702070BB
:1007A0006F727420696E76657274206D61736B3A36
:1007B000002028737465702070756C73652C20752B
:1007C000736563290D0A2431373D00202863206DAD
:1007D00061782074726176656C2C206D6D290D0A2C
:1007E0002431363D0020287A206D617820747261B2
:1007F00076656C2C206D6D290D0A2431353D002065
:100800002879206D61782074726176656C2C206D7A
:100810006D290D0A2431343D00202878206D61783F
:100820002074726176656C2C206D6D290D0A24315F
:10083000333D0020286320616363656C2C206D6D5F
:100840002F7365635E32290D0A2431323D00202862
:100850007A20616363656C2C206D6D2F7365635E18
:1008600032290D0A2431313D00202879206163634B
:10087000656C2C206D6D2F7365635E32290D0A2423
:1008800031303D0020287820616363656C2C206D39
:100890006D2F7365635E32290D0A24393D002028CF
:1008A00063206D617820726174652C206D6D2F6DF1
:1008B000696E290D0A24383D0020287A206D617860
:1008C00020726174652C206D6D2F6D696E290D0A83
:1008D00024373D00202879206D617820726174658D
:1008E0002C206D6D2F6D696E290D0A24363D002078
:1008F0002878206D617820726174652C206D6D2FD1
:100900006D696E290D0A24353D002028632C207363
:100910007465702F6D6D290D0A24343D0020287AEE
:100920002C20737465702F6D6D290D0A24333D00E2
:100930002028792C20737465702F6D6D290D0A2481
:10094000323D002028782C20737465702F6D6D293E
:100950000D0A24313D0024303D00242420287669EE
:100960006577204772626C2073657474696E677373
:10097000290D0A24232028766965772023207061B9
:1009800072616D6574657273290D0A24472028769B
:100990006965772070617273657220737461746524
:1009A000290D0A244E2028766965772073746172B8
:1009B00074757020626C6F636B73290D0A24783D27
:1009C00076616C7565202873617665204772626C6C
:1009D0002073657474696E67290D0A244E783D6C26
:1009E000696E652028736176652073746172747511
:1009F0007020626C6F636B290D0A244320286368A2
:100A000065636B2067636F6465206D6F6465290D96
:100A10000A245820286B696C6C20616C61726D200F
:100A20006C6F636B290D0A24483C783D73696E67CF
:100A30006C6520617869733E202872756E20686F3E
:100A40006D696E67206379636C65290D0A24453CE6
:100A5000783D636C65617220617869733E2028720D
:100A600065706F727420656E636F64657273290DB3
:100A70000A2448783D61786973202872756E206871
:100A80006F6D696E67206379636C65290D0A7E203E
:100A9000286379636C65207374617274290D0A216F
:100AA00020286665656420686F6C64290D0A3F2004
:100AB0002863757272656E7420737461747573291E
:100AC0000D0A5E20286C696D69742070696E732947
:100AD0000D0A6374726C2D7820287265736574201A
:100AE0004772626C290D0A000D0A4772626C203051
:100AF0002E394B2E332E36205B27242720666F722B
:100B00002068656C705D0D0A005D0D0A0044697314
:100B100061626C656400456E61626C65640043618E
:100B20007574696F6E3A20556E6C6F636B65640007
:100B3000272448277C2724582720746F20756E6C43
:100B40006F636B00526573657420746F20636F6E02
:100B500074696E7565005B005741524E494E473AC5
:100B60002050726F6265206661696C0D0A000D0A83
:100B7000004D6167617A696E65204D697373696EB6
:100B80006700466F72636520736572766F696E6782
:100B9000206661696C004573746F702070726573B4
:100BA0007365642000486F6D696E67206661696CCB
:100BB000200050726F6265206661696C200041629E
:100BC0006F727420647572696E67206379636C65F7
:100BD000200048617264206C696D69742000536F55
:100BE0006674206C696D69742000414C41524D3A25
:100BF00020000D0A0044454255473A20000D0A00E6
:100C0000496E76616C69642067636F64652049444E
:100C10003A00556E646566696E6564206665656454
:100C2000207261746500556E737570706F727465B3
:100C30006420636F6D6D616E64004D6F64616C2044
:100C400067726F75702076696F6C6174696F6E0082
:100C50004C696E65206F766572666C6F7700486FC1
:100C60006D696E67206E6F7420656E61626C65647D
:100C700000416C61726D206C6F636B004E6F74206D
:100C800069646C6500454550524F4D207265616442
:100C9000206661696C2E205573696E6720646566F5
:100CA00061756C74730056616C7565203C2033204F
:100CB000757365630053657474696E672064697346
:100CC00061626C65640056616C7565203C20300083
:100CD000496E76616C69642073746174656D656ECC
:100CE0007400426164206E756D62657220666F7279
:100CF0006D617400457870656374656420636F6D21
:100D00006D616E64206C6574746572006572726FDB
:100D1000723A20006F6B0D0A000011241FBECFEF46
:100D2000D1E2DEBFCDBF00E00CBF12E0A0E0B2E038
:100D3000ECE4FBE900E00BBF02C007900D92A03588
:100D4000B107D9F72FE1A0E5B2E001C01D92AB39A0
:100D5000B207E1F70E94B0060C94A44D0C94000079
:100D60000E949E150E942E280E94051D0E94E940A7
:100D70000E946B410E9496441EBA81E0809300025B
:100D800078940E9450160E94F60A0E94DC400E944D
:100D900098150E949B150E940B2F0E9429360E94D5
:100DA000672D0E94A8290E94AE1C0E94D2420E9478
:100DB000B6440E94BF454BE155E464EF71E080E02A
:100DC00090E00E942C460E94322D0E94520B1092FD
:100DD00000021EBA9091B61D8091030291FF02C0DD
:100DE000826001C08D7F809303020E946C17C9CF7F
:100DF0006F927F928F929F92AF92BF92DF92EF920B
:100E0000FF920F931F93CF93DF9300D01F92CDB724
:100E1000DEB73C01D22E470158018091B61D85FFF7
:100E20000BC0C30149835A836B837C830E94D832F1
:100E30007C816B815A8149818091010290910202EB
:100E4000029759F149835A836B837C830E9455161C
:100E500080910002811121C00E94F72949815A81A5
:100E60006B817C81882339F00E94671749815A8100
:100E70006B817C81E7CF850174012D2DC3010E9418
:100E8000FF298091010290910202892B31F488E0C0
:100E900090E090930202809301020F900F900F90C8
:100EA0000F90DF91CF911F910F91FF90EF90DF9006
:100EB000BF90AF909F908F907F906F9008952F92EA
:100EC0003F924F925F926F927F928F929F92AF92DA
:100ED000BF92CF92DF92EF92FF920F931F93CF9327
:100EE000DF93CDB7DEB7E7970FB6F894DEBF0FBE3E
:100EF000CDBF9E878D87788B6F873A010D831E83C8
:100F00002F833887C98ADA8AEB8AFC8AAD8A24E083
:100F1000829E40011124880D991D9F8B8E8BCA01E2
:100F2000880D991D998F888FDC012D903D904D90F3
:100F30005C90EE89FF892081318142815381C20119
:100F4000B1010E9474466A8F7B8F8C8F9D8F2E9685
:100F5000AFAC2E97F4E0AF9E500111242D853E8555
:100F60002A0D3B1D3F8F2E8FC3018A0D9B1D99A318
:100F700088A3DC01CD90DD90ED90FC90F9012081FB
:100F8000318142815381C701B6010E9474466AA330
:100F90007BA38CA39DA33201210177FA709477F88B
:100FA0007094D701C601B05889839A83AB83BC8300
:100FB000EF85F889E80DF91D2A8D3B8D4C8D5D8DEF
:100FC00060817181828193810E9473466B017C01F3
:100FD000EF85F889EA0DFB1D2AA13BA14CA15DA17B
:100FE00060817181828193810E9473464B015C0113
:100FF000A7019601C301B2010E94CB4969877A8794
:101000008B879C87A501940169817A818B819C8162
:101010000E94CB499B01AC0169857A858B859C85B3
:101020000E94744669877A878B879C87A501940103
:10103000C301B2010E94CB494B015C01A70196019B
:1010400069817A818B819C810E94CB499B01AC0193
:10105000C501B4010E94734629853A854B855C859C
:101060000E94F3466B017C018091641B20E030E01C
:10107000A901823079F4C701B6010E948B4987FD2E
:1010800019C02BED3FE049EC50E4C701B6010E94C6
:1010900073460EC0C701B6010E946947181654F086
:1010A0002BED3FE049EC50E4C701B6010E947446C5
:1010B0006B017C018090B21D9090B31DA090B41D77
:1010C000B090B51D2D813E814F815885CA01B9016F
:1010D0000E947446A50194010E9473469B01AC01D5
:1010E000C501B4010E94CB490E946A4A4B015C01D0
:1010F00020E030E040E05FE3C701B6010E94CB4949
:101100002D813E814F8158850E94CB499F77A50153
:1011100094010E9473470E9458480E94EC477FA3A5
:101120006EA3DB01AB2B09F482C14B01A12CB12CC6
:10113000BD89BB2381F0C501B4010E941B489B01FE
:10114000AC0169897A898B899C890E94CB49698B1A
:101150007A8B8B8B9C8BC501B4010E941B484B0181
:101160005C019B01AC01C701B6010E9473476D830E
:101170007E838F8398872F968FAD2F97E4E08E9F85
:10118000C00111242D853E85280F391F3A872987F4
:10119000EF85F889E80FF91FD9012D913D914D9107
:1011A0005C9160817181828193810E947346A50167
:1011B00094010E9473476CAB7DAB8EAB9FAB2D81CE
:1011C0003E814F815885CA01B9010E94CB499B01DC
:1011D000AC0160E070E080E090E40E9473466B0137
:1011E0007C012BEA3AEA4AE25EE36D817E818F81DF
:1011F00098850E94CB494B015C0120E030E040E83B
:1012000050E4C701B6010E9474469B01AC01C501C0
:10121000B4010E94CB4968A779A78AA79BA720E0C1
:1012200030E040E05FE3C701B6010E94CB496CA704
:101230007DA78EA79FA7A12C22242394312CEEA159
:10124000FFA12E163F0609F4F2C0B3E1BA1508F467
:1012500040C02CA53DA54EA55FA569817A818B81F3
:101260009C810E94CB496B017C0128A539A54AA528
:101270005BA5C301B2010E94CB49A70196010E9460
:101280007446B62ED72E7C012CA53DA54EA55FA594
:10129000C301B2010E94CB492B013C0128A539A50D
:1012A0004AA55BA569817A818B819C810E94CB498B
:1012B0009B01AC01C301B2010E9473462B013C01AA
:1012C000A3948B2D9D2DD70189839A83AB83BC83F7
:1012D00065C0B10180E090E00E941B482D813E81F5
:1012E0004F8158850E94CB496B017C010E946E475B
:1012F00069837A838B839C83C701B6010E945C4A11
:101300004B015C01E88DF98DC080D180E280F380D3
:10131000F7FAF094F7F8F094A8A1B9A18D919D91F6
:101320000D90BC91A02D88AB99ABAAABBBAB29812A
:101330003A814B815C81C701B6010E94CB492B01E8
:101340003C01A501940168A979A98AA99BA90E94D9
:10135000CB499B01AC01C301B2010E9474462B0131
:101360003C01A5019401C701B6010E94CB496B0164
:101370007C0129813A814B815C8168A979A98AA97C
:101380009BA90E94CB499B01AC01C701B6010E94F9
:10139000734669837A838B839C83A12CA30192017A
:1013A0006A8D7B8D8C8D9D8D0E947446EE89FF89A0
:1013B000608371838283938329813A814B815C812D
:1013C0006AA17BA18CA19DA10E947446AE8DBF8DA8
:1013D0006D937D938D939C9313972CA93DA94EA952
:1013E0005FA9E985FA8560817181828193810E947C
:1013F0007446A985BA856D937D938D939C931397BD
:101400006396ECACFDAC0EAD1FAD63972D89498999
:101410005A896B897C898D859E850E94F80680910A
:101420000002811113C0BFEF2B1A3B0A08CF63964D
:10143000ECACFDAC0EAD1FAD63972D8949895A897F
:101440006B897C898F8598890E94F806E7960FB68C
:10145000F894DEBF0FBECDBFDF91CF911F910F91EA
:10146000FF90EF90DF90CF90BF90AF909F908F90C4
:101470007F906F905F904F903F902F9008958F9244
:101480009F92AF92BF92CF92DF92EF92FF92209104
:101490000102309102022230310509F448C04B01AB
:1014A0005C0120E030E040EA51E40E94CB490E9418
:1014B00058480E94EC476B017C010E94491720E0CC
:1014C00030E04AE754E4C501B4010E94CB494B0126
:1014D0005C0122E32C9DC0012D9D900D1124BC01C7
:1014E00080E090E00E941B489B01AC01C501B40163
:1014F0000E9473460E9458480E94EC47CB010E940C
:10150000AA2EC114D10499F00E94551621E0C21AE6
:10151000D1088091000281110AC08FEF90E722E08C
:10152000815090402040E1F700C00000EACFFF90DA
:10153000EF90DF90CF90BF90AF909F908F900895E5
:10154000CF93C82F84E090E0909302028093010231
:101550000E94FC2E8C2F0E9495300E94551680917F
:101560000002811110C00E94520BC2FF03C082E032
:101570000E947E4110920202109201020E9486187F
:10158000CF910C94012FCF91089580E490E0909337
:101590000202809301020E94FC2E0E94B7330E9437
:1015A000551680910002811108C00E94520B1092C2
:1015B0000202109201020C9486180895F49915C045
:1015C000F49A0E9499150E949C15809101029091B5
:1015D000020284779170892B41F08091040284602B
:1015E00080930402F59A0C9486180895AF92BF92E6
:1015F000CF92DF92EF92FF920F931F93CF93DF93DF
:1016000087E4E4E6FBE1DF011D928A95E9F767E8EC
:101610007BE180E00E94F325811103C087E00E94F6
:10162000B23720916A1D30916B1D40916C1D509115
:101630006D1D60E070E080E291E40E9473477B01E1
:101640008C01CEE6DDE1299139914991599160E013
:1016500070E080E291E40E9473475B016C019B01A2
:10166000AC01B701C8010E94694787FD02C075013E
:101670008601BDE1CA37DB0731F7A701B801409306
:10168000AB1B5093AC1B6093AD1B7093AE1BDF91F3
:10169000CF911F910F91FF90EF90DF90CF90BF906F
:1016A000AF900895CF92DF92EF92FF920F931F9326
:1016B000CF93DF9300D01F92CDB7DEB70AE61DE1CE
:1016C000C12CD12CF80121913191419151918F017F
:1016D000C6018C59944E7C01F601E050FE4F6581A5
:1016E00076818781908529833A834B835C830E942E
:1016F0001D4829813A814B815C810E947347F70123
:10170000638B748B858B968BF4E0CF0ED11C80E1BC
:10171000C816D104B9F60F900F900F900F90DF917B
:10172000CF911F910F91FF90EF90DF90CF90089590
:101730002F923F924F925F926F927F928F929F92E1
:10174000AF92BF92CF92DF92EF92FF920F931F93CF
:10175000CF93DF93CDB7DEB7E2970FB6F894DEBF35
:101760000FBECDBF9EA78DA78CE3EFEAFBE1DF01A3
:101770001D928A95E9F78AE0E4E6FBE1A0EBBBE184
:1017800001900D928A95E1F71DA2212C312C612C3C
:10179000712C19A610E01EA244244394512CDD2480
:1017A000D39462E0C62E8DA1EDA5FEA5E80FF11D34
:1017B000E080EE2009F43CC29FEB9E0D9A3110F0C0
:1017C0000C9422158F5F8DA3AE014F5D5F4FBE015C
:1017D0006B5D7F4F8DA59EA50E94EA2D882311F495
:1017E0000C94241589A09AA0ABA0BCA0C501B4019B
:1017F0000E94AE4A0E94EC47062F70E080E090E025
:101800000E941D489B01AC01C501B4010E947346B2
:1018100020E030E048EC52E40E94CB490E94384A74
:101820000E94EC47B7E4EB1629F0EDE4EE1609F45C
:10183000F8C03CC10B3209F4B3C0E8F4043160F4E1
:10184000013108F084C0043009F442C008F452C0E9
:101850000A30A9F10C9428150C3189F128F40631CD
:1018600008F495C00C9428150E3149F1063209F49C
:1018700041C00C942815003509F465C098F40C3368
:1018800050F4063308F0A2C0013309F489C00533CF
:1018900061F10C942815023411F00C942815C092B3
:1018A000B21B7CC00C3559F028F40A3508F05DC035
:1018B0000C9428150F3508F461C00C94281561119B
:1018C00090C0FEA1FF2311F40C9460150C94261512
:1018D000D092AF1B0DC00F3110F40C94531505338B
:1018E00011F00C947115F1E0FEA327E02093AF1BDB
:1018F00080E073C0AEA1A1110C942615B2E0BEA386
:10190000023089F028F4002359F0013081F064C0DE
:10191000063281F00035B9F0033009F05DC007C030
:101920001092B01B59C0EEA1E093B01B55C00093BC
:10193000B01B52C0643111F00C942815F4E0F09300
:10194000B01B81E065C025E02093B01B45C002318B
:1019500029F0033131F01092B41B05C0D092B41BB2
:1019600002C0C092B41B82E038C00A3519F410924C
:10197000B31B02C0D092B31B83E02FC00D3519F406
:10198000D092B11B02C01092B11B84E026C004317A
:1019900019F4D092B21B02C01092B21B85E01DC098
:1019A0003EA131110C942615013331F41092B51B70
:1019B00086E093E09EA32CC06A3011F00C942815A9
:1019C000D092B51B86E0A3E0AEA322C08AEC800FC4
:1019D0008093B61B87E001C081E06623C9F00C94B8
:1019E00048150E3111F40C944C1510F00C9442155E
:1019F0000A3011F40C9457150C3111F00C94481561
:101A00006A3011F00C94281594E09093AF1B80E09D
:101A1000F20102C0EE0FFF1F8A95E2F7CF019F018E
:101A20003DC061110C944815063018F4033058F08D
:101A300016C0083010F40C9428150A30F0F00E315E
:101A400059F00C942815023039F00E3129F00111AB
:101A50001DC0D092B71B1AC0C092B71B17C004306C
:101A600029F0053031F0D092B91B05C0C092B91BE6
:101A700002C01092B91B89E00AC0093019F0C09267
:101A8000B81B02C01092B81B8AE001C088E0920126
:101A900002C0220F331F8A95E2F7C90126213721A0
:101AA000232B09F0E7C7682A792A7DCE8E2DEE0C0C
:101AB000990BAA0BBB0BFC01E354F109E831F105CA
:101AC00008F0C6C78827EE58FF4F8F4F0C94024B83
:101AD0008092E71B9092E81BA092E91BB092EA1B50
:101AE00018608DE083C08092BA1B9092BB1BA092BD
:101AF000BC1BB092BD1B80E079C08092BE1B90924F
:101B0000BF1BA092C01BB092C11B39A5316039A781
:101B100081E06CC08092C21B9092C31BA092C41B38
:101B2000B092C51B89A5826089A782E05FC08092C0
:101B3000C61B9092C71BA092C81BB092C91B99A547
:101B4000946099A783E052C00093CA1B84E04EC002
:101B5000C501B4010E94EC476093CB1B7093CC1B72
:101B60008093CD1B9093CE1B85E040C08092CF1B0D
:101B70009092D01BA092D11BB092D21B86E036C0AF
:101B80008092D31B9092D41BA092D51BB092D61BEF
:101B900087E02CC08092D71B9092D81BA092D91BB3
:101BA000B092DA1B88E022C08092DB1B9092DC1B93
:101BB000A092DD1BB092DE1B11608AE017C08092FC
:101BC000DF1B9092E01BA092E11BB092E21B12601F
:101BD0008BE00CC08092E31B9092E41BA092E51B6B
:101BE000B092E61B14608CE001C089E07201082EFF
:101BF00002C0EE0CFF1C0A94E2F797012221332168
:101C0000232B09F027C7A1E6B3E002C0B595A7953D
:101C10008A95E2F7A0FF09C020E030E0A901C501E4
:101C2000B4010E94694787FD17C72E283F28BBCD06
:101C3000112329F0BEA1B11102C0E2E0EEA325FEFE
:101C40000EC08091CB1B9091CC1BA091CD1BB0916D
:101C5000CE1B81159044A105B10508F0FFC6809107
:101C6000B11B813051F42EA1223011F420FEFEC6AA
:101C70008091B21B8230E9F5EBC68091651B811122
:101C800038C020FE26C08091B21B8130B9F423E316
:101C900033E34BEC51E46091BA1B7091BB1B809114
:101CA000BC1B9091BD1B0E94CB496093BA1B7093E3
:101CB000BB1B8093BC1B9093BD1B1BC08230C9F41F
:101CC0008091AB1B9091AC1BA091AD1BB091AE1B52
:101CD00008C08091721B9091731BA091741BB091EE
:101CE000751B8093BA1B9093BB1BA093BC1BB09336
:101CF000BD1B30FC10C080916E1B90916F1BA0919A
:101D0000701BB091711B8093D71B9093D81BA0932D
:101D1000D91BB093DA1B8091AF1B813031F426FCC4
:101D200002C08CE1ECC6E89426F88091B41B8823AD
:101D300071F0813031F431E03AAB19AA82E08DA71D
:101D40000BC01AAA92E099ABA1E0ADA705C0B2E022
:101D5000BAABE1E0E9AB1DA60091B21B011105C0D1
:101D6000FEA1F33009F04BC043C03BEDE32E3BE155
:101D7000F32E4AE6A42E4DE1B42EC12CD12C812E97
:101D8000912CC4010C2C02C0959587950A94E2F71A
:101D900080FF20C0023069F4D5012D913D914D9115
:101DA0005C91F70160817181828193810E94734708
:101DB0000BC023E333E34BEC51E4F7016081718105
:101DC000828193810E94CB49D7016D937D938D933E
:101DD0009C931397BFEFCB1ADB0AE4E0EE0EF11CE5
:101DE000F4E0AF0EB11C24E0C216D10451F6B8CF16
:101DF0008091B51B813019F4143009F031C680E1AF
:101E0000E7E8FBE1DE01519601900D928A95E1F73A
:101E100067FC08C00091AF1B0230B9F0083009F42C
:101E2000ABC00EC18091B61B873010F08DE167C644
:101E300090916A1B981771F3BE016F5E7F4F0E94ED
:101E4000F3258111E7CF87E05AC6111102C08AE15C
:101E500056C6C10180759927892B09F462CF60911C
:101E6000CF1B7091D01B8091D11B9091D21B0E94EF
:101E7000AE4A0E94EC476730C8F68091CA1B843195
:101E800029F0823009F0E4C527FCE2C53FEA2322AD
:101E9000662319F08FEF860F02C08091B61BBE013A
:101EA0006F5F7F4F0E94F325882369F20091CA1B60
:101EB0004090A71B5090A81B6090A91B7090AA1B74
:101EC000CE0101967C01A12CB12CC12CD12C812EEC
:101ED000912CC4010C2C02C0959587950A94E2F7C9
:101EE00080FF3BC0D501A155B44EB8A7AFA30431C4
:101EF00049F5F501EC59F44E23A934A945A956A991
:101F000063897489858996890E947346EFA1F8A533
:101F100024A535A546A557A50E947346D7016D9304
:101F20007D938D939C931397B2E0CB16D104A9F4C3
:101F3000A30192010E947346F7016083718382833B
:101F400093830BC0EFA1F8A584A595A5A6A5B7A579
:101F5000F70180839183A283B383FFEFCF1ADF0A57
:101F600024E0E20EF11C34E0A30EB11C84E0C8169C
:101F7000D10409F0AECF09C1112309F468CF409014
:101F8000A71B5090A81B6090A91B7090AA1B2BED5B
:101F9000E22E2BE1F22EA12CB12CC12CD12C812EC2
:101FA000912CF501EC59F44EC4010C2C02C095950E
:101FB00087950A94E2F780FF2BC0A1E1B0E0AC0F57
:101FC000BD1FAA0DBB1D2D913D914D915C91638963
:101FD0007489858996890E947346D7012D913D9118
:101FE0004D915C910E947346F701608371838283F7
:101FF0009383F2E0CF16D104A1F4A30192010E94D1
:102000007346D7016D937D938D939C93139709C06D
:1020100083A994A9A5A9B6A9F70180839183A28376
:10202000B383FFEFCF1ADF0A24E0E20EF11C34E0A5
:10203000A30EB11C84E0C816D10409F0B2CFA5C02C
:102040009EA1933071F4053009F490C0073009F473
:1020500097C0033009F099C0BE016F5F7F4F86E0E3
:1020600089C0112381F3A091B31BAFA34090A71B9C
:102070005090A81B6090A91B7090AA1B84E6A82E04
:102080008BE1B82E9BEDE92E9BE1F92E4E01B1E1DB
:102090008B0E911CC12CD12CE12FF0E0F8ABEFA7F7
:1020A0008FA598A90C2C02C0959587950A94E2F704
:1020B00080FD0BC0F50183899489A589B689F70154
:1020C00080839183A283B3833FC00730E9F1FFA1EE
:1020D000F11129C0D501D3962D913D914D915C917F
:1020E000D697F40160817181828193810E94744648
:1020F000D7012D913D914D915C910E947446F7015D
:102100006083718382839383F2E0CF16D104E1F47C
:10211000A30192010E947446D7016D937D938D9324
:102120009C93139711C0F5012389348945895689F9
:10213000D7016D917D918D919C910E947446F7011C
:102140006083718382839383FFEFCF1ADF0A24E0D9
:10215000A20EB11C34E0E30EF11C84E0880E911C49
:1021600094E0C916D10409F09BCF6DCFBE016F5F1B
:102170007F4F87E00E94F325882309F464CE05C0D1
:102180008091B01B823008F06DC40091B01B053007
:1021900041F4112309F498C1AEA1A13009F064C43F
:1021A0006FC2BEA1B23009F08FC10023D9F020E088
:1021B00030E0A9016091BA1B7091BB1B8091BC1BE0
:1021C0009091BD1B0E946947882309F44FC40430D5
:1021D00028F4023058F4013029F052C2043009F4D6
:1021E0006DC14EC2112309F472C14AC2112309F410
:1021F0002ECEFDA5EF2FF0E0F8A7EFA339A9232FEE
:1022000030E038AB2FA781E090E03C0109A802C084
:10221000660C771C0A94E2F70DA402C0880F991F80
:102220000A94E2F7682A792A812F90E08621972183
:10223000892B09F41DC41091B21B123009F41AC481
:10224000EE0FFF1FEE0FFF1FE552F44EAFA1B8A532
:10225000AA0FBB1FAA0FBB1FAC59B44E53962D91AA
:102260003D914D915C9156976081718182819381FE
:102270000E9473466B017C01EFA5F8A9EE0FFF1FCA
:10228000EE0FFF1FE552F44EAFA5B8A9AA0FBB1F72
:10229000AA0FBB1FAC59B44E53962D913D914D9151
:1022A0005C91569760817181828193810E9473460F
:1022B0004B015C0127FE54C0E89427F82091DB1BFA
:1022C0003091DC1B4091DD1B5091DE1B6091771B30
:1022D0007091781B8091791B90917A1B0E946947BD
:1022E0008111FAC02091DF1B3091E01B4091E11B6E
:1022F0005091E21B60917B1B70917C1B80917D1B38
:1023000090917E1B0E9469478111E6C02091E31BDA
:102310003091E41B4091E51B5091E61B60917F1BBF
:102320007091801B8091811B9091821B0E94694754
:102330008111D2C02091E71B3091E81B4091E91B2D
:102340005091EA1B6091831B7091841B8091851BC7
:102350009091861B0E9469478111BEC081E2CFC364
:10236000F9A54F2E512C64207520672809F484C3E9
:1023700021EF2222113009F45AC00FA518A9000F2D
:10238000111F000F111F0D54144ED8011B962D91D3
:102390003D914D915C911E97C501B4010E94734619
:1023A0002B013C018FA198A5880F991F880F991FB9
:1023B000FC01ED54F44E5F01238534854585568537
:1023C000C701B6010E947346A30192010E94C02E6C
:1023D0006B017C01D8011B962D913D914D915C9133
:1023E0001E97F50163857485858596850E94C02EAC
:1023F0004B015C016093D31B7093D41B8093D51B5E
:102400009093D61B9B01AC01C701B6010E94734695
:102410006B017C01E894F7F82AE037ED43EA5BE3CF
:10242000C701B6010E948B4918165CF129C18FEAD9
:10243000682E8BE1782E00E010E0C201002E02C071
:10244000959587950A94E2F780FF12C023E333E362
:102450004BEC51E4D3011F966D917D918D919C9130
:1024600052970E94CB49F3016787708B818B928BC7
:102470000F5F1F4FF4E06F0E711C04301105E9F679
:102480007CCF20E030E040E05FE3C701B6010E946E
:102490008B4918160CF462CF2FE632E143E85AE379
:1024A000C501B4010E94CB499B01AC01C701B60133
:1024B0000E948B4918160CF451CFE2C0E89426F81C
:1024C000112309F4C4CCDCC02EA12111D9C0C10153
:1024D0008E7D9C7F1EA2D7C01130B1F423E333E37D
:1024E0004BEC51E46091D31B7091D41B8091D51BB0
:1024F0009091D61B0E94CB496093D31B7093D41B41
:102500008093D51B9093D61B4090D31B5090D41B27
:102510006090D51B7090D61B20E030E040E850E47E
:10252000C301B2010E94CB49A30192010E94CB4991
:102530002B013C01A7019601C701B6010E94CB49BE
:102540009B01AC01C301B2010E9473462B013C0107
:10255000A5019401C501B4010E94CB499B01AC01C6
:10256000C301B2010E9473462B013C0120E030E020
:10257000A9010E94694787FD8DC2C301B2010E9473
:102580006A4A2B013C01A5019401C701B6010E94D2
:10259000C02E9B01AC01C301B20190580E94734749
:1025A0002B013C018091B01B833021F477FA7094A9
:1025B00077F870948091D31B9091D41BA091D51B78
:1025C000B091D61B89A79AA7ABA7BCA720E030E0A3
:1025D000A901BC01CD010E94694787FF11C077FAAC
:1025E000709477F8709489A59AA5ABA5BCA5B0584E
:1025F0008093D31B9093D41BA093D51BB093D61B71
:102600000FA118A5000F111F000F111F0D54144E1C
:10261000A3019201C501B4010E94CB499B01AC0109
:10262000C701B6010E94734620E030E040E05FE35E
:102630000E94CB49D8011B966D937D938D939C93FB
:102640001E970FA518A9000F111F000F111F0D5481
:10265000144EA3019201C701B6010E94CB499B0110
:10266000AC01C501B4010E94744620E030E040E0B6
:102670005FE30E94CB49F80163877487858796875B
:10268000C1018E7D907C892B09F0F8C18091B11B2E
:102690008093651B8091BA1B9091BB1BA091BC1BC2
:1026A000B091BD1B8093721B9093731BA093741BFE
:1026B000B093751BC090D71BD090D81BE090D91B4E
:1026C000F090DA1BA701960160916E1B70916F1B51
:1026D0008091701B9091711B0E946947882381F043
:1026E000C0926E1BD0926F1BE092701BF092711B18
:1026F00080916D1B882321F0B701A6010E949A15D5
:102700008091B91B90916D1B981761F080936D1BA0
:1027100040916E1B50916F1B6091701B7091711BEB
:102720000E949A158091B81B90916C1B981721F00C
:1027300080936C1B0E949D158091AF1B8130F9F432
:102740006091CB1B7091CC1B8091CD1B9091CE1BC7
:102750000E9401416091CF1B7091D01B8091D11BD1
:102760009091D21B0E943F0A809103028160809366
:1027700003028091631B81608093631BF09A8091B8
:10278000B41B8093681B8091B21B8093661B3EA193
:102790003330F9F48091B51B8093691B813089F443
:1027A0008091E31B9091E41BA091E51BB091E61B87
:1027B0008093A71B9093A81BA093A91BB093AA1B5F
:1027C00008C01092A71B1092A81B1092A91B109270
:1027D000AA1B8091B61B90916A1B981759F08093A1
:1027E0006A1B80E1FE017196A7E8BBE101900D92A2
:1027F0008A95E1F78091B31B8093671BE091AF1B33
:102800008E2F90E0FC013297E830F10508F06FC0A0
:102810008827E657FF4F8F4F0C94024B6091CF1BD8
:102820007091D01B8091D11B9091D21B0E94AE4A17
:102830000E94EC47662319F01FEF160F02C010919B
:102840006A1BBE016F5F7F4F812F0E94AC24809175
:102850006A1B81134CC080E1FE013196A7E8BBE101
:102860002AC08EA1882389F0E090CB1BF090CC1B6E
:102870000091CD1B1091CE1B20E040E050E060E8BD
:102880007FEB8BED9BE10E94F806E090CB1BF09074
:10289000CC1B0091CD1B1091CE1B20E040E050E0FE
:1028A00060E87FEBCE0101960E94F80680E1FE0110
:1028B0003196A7E7BBE101900D928A95E1F717C029
:1028C00067E77BE186E003C067E77BE187E00E9482
:1028D000AC240DC080E1EBEDFBE1A7E9BBE1EBCF60
:1028E00080E1E7E9FBE1DF011D928A95E9F780913C
:1028F000B01B8093641B853009F48CC0BEA1B2303C
:1029000009F088C08430D8F4823008F047C08823AA
:1029100099F1813009F073C0E090CB1BF090CC1B93
:102920000091CD1B1091CE1B4091721B5091731BD7
:102930006091741B7091751B2091651B2AC08430B7
:1029400009F05DC0E090CB1BF090CC1B0091CD1B3B
:102950001091CE1B4091721B5091731B6091741BA0
:102960007091751BC12CD12C2091651B8BED9BE1C7
:102970000E94B73610E844C0E090CB1BF090CC1B0F
:102980000091CD1B1091CE1B20E040E050E060E8AC
:102990007FEB8BED9BE10E94F80631C0C090721B6B
:1029A000D090731BE090741BF090751B0091D31BAB
:1029B0001091D41B2091D51B3091D61B8091CE1B3A
:1029C0008F938091CD1B8F938091CC1B8F9380919F
:1029D000CB1B8F93EAA9EF93F9A9FF938DA4A09045
:1029E000651B4EEB5BE16BED7BE187E79BE10E94B2
:1029F0005F070F900F900F900F900F900F9010E0C7
:102A000080E1EBEDFBE1A7E7BBE101900D928A9538
:102A1000E1F701C010E08091B71B80936B1B882306
:102A200079F10E944917809103028D7F8093030200
:102A300080916B1B823019F40E94DE0A21C0109233
:102A40006B1B1EC081E05BC082E059C088E157C0AB
:102A500084E155C089E153C084E051C08BE14FC08F
:102A600086E24DC08EE14BC08FE149C086E147C090
:102A700080E245C085E143C083E241C085E23FC0BA
:102A8000812F3DC0053311F40C94750C0C3599F071
:102A900087E135C082E233C06A30D1F6E6E0E093E8
:102AA000AF1B0C94070D0A30B1F421E02EA3C092A5
:102AB000AF1B0C94780C6A3059F699E00C94050D14
:102AC0000E3111F00C946B0CA1E0AEA3B5E0B09305
:102AD000AF1B0C94070D0C3169F431E03EA383E089
:102AE00005C00C3539F431E03EA388E08093AF1B7C
:102AF0000C94070D80E0B1E0BEA30C94080DE296A3
:102B00000FB6F894DEBF0FBECDBFDF91CF911F91FE
:102B10000F91FF90EF90DF90CF90BF90AF909F907C
:102B20008F907F906F905F904F903F902F9008957F
:102B3000089508950895089508950895E0ECF0E04B
:102B400080818D7F80831092C50089E18093C400CD
:102B5000E1ECF0E080818061808380818860808307
:102B60008081806880830895E091520291E09E0FF9
:102B7000903821F490E002C0F4990FC020915102E6
:102B80009217D1F3F0E0E651F34E80839093520216
:102B90008091C10080628093C1000895CF93C82FB7
:102BA000809150028C0F809350028C2F0E94B4159C
:102BB000CA3031F4809150020E94B4151092500234
:102BC000CF9108951F920F920FB60F9211240BB65A
:102BD0000F928F939F93EF93FF9380915102E82F71
:102BE000F0E0E651F34E90819093C6008F5F8038FD
:102BF00009F480E08093510290915202891305C03C
:102C00008091C1008F7D8093C100FF91EF919F91D2
:102C10008F910F900BBE0F900FBE0F901F901895C5
:102C20009091530280915402891761F0E92FF0E0EE
:102C3000E551F44E80819F5F9F3F09F490E09093AF
:102C4000530208958FEF08951F920F920FB60F92BF
:102C500011240BB60F922F938F939F93EF93FF93B3
:102C60009091C600809154028F5F8F3F09F480E0FD
:102C700020915302821741F0E0915402F0E0E551B7
:102C8000F44E908380935402FF91EF919F918F9126
:102C90002F910F900BBE0F900FBE0F901F901895A5
:102CA00080915402809353020895CF92DF92EF9265
:102CB000FF92CF93DF93DEB3C090570DD090580DA5
:102CC000E090590DF0905A0D0E948A430E944345AE
:102CD0008091550290915602A0915702B0915802EE
:102CE000AC01BD01435B5E4F6F4F7F4FC416D506ED
:102CF000E606F70628F4C816D906EA06FB06A0F48D
:102D0000D1609091631B20912602922B9093631BBC
:102D100083E0822780932602C0925502D092560209
:102D2000E0925702F09258020E94B518DD2309F490
:102D30009EC08D2F8076D9F081E090E090930202C2
:102D400080930102809104020E941338D6FD06C0D0
:102D50008EB38F798EBB1092040209C081E00E946D
:102D60005238F4980E948A43F49BFCCFF1CFD4FFF1
:102D700004C081E08093000285C0D0FF2BC0C091C9
:102D8000631B1092631BC0FF06C00E94C03C8111F0
:102D900019C0CE7F17C0C1FF04C00E94013ECD7F85
:102DA00011C0C2FF04C00E94523CCB7F0BC0C3FFC6
:102DB00004C00E94823CC77F05C0C4FF03C00E94BC
:102DC000A83CCF7E8091631BC82BC093631BC111AD
:102DD00001C0F098D3FF16C08091010290910202C9
:102DE000409779F480E290E0909302028093010290
:102DF0000E94431D0E94651D809103028D7F809378
:102E00000302F398D1FF21C0809101029091020248
:102E10009C0124743170232BC1F40897A9F480E13C
:102E200090E090930202809301020E94651D0E942F
:102E30001D189091B61D8091030291FF02C082601F
:102E400001C08D7F80930302F198D2FF10C00E94D1
:102E5000CD29892B39F088E090E09093020280938D
:102E6000010204C01092020210920102F2988091B5
:102E700001029091020284779170892B11F00E94D7
:102E8000651D1098DF91CF91FF90EF90DF90CF906C
:102E900008958091010290910202409791F48091EF
:102EA00003028260809303020CC080910102909122
:102EB0000202409759F40E94551680910002811138
:102EC00005C00E94CD29892BB1F7EFCF08958091DD
:102ED000030281FDF19A08951F93CF93DF931F9210
:102EE000CDB7DEB70E94783880910102909102023E
:102EF000019721F482E00E9452382AC01092020207
:102F00001092010289E592E00E94573E21C091E0B3
:102F1000910FE12FF0E02FE9280F2A3108F48052B9
:102F2000E75AFD4F8083192FCE0101960E94754309
:102F30008823D1F189818A3069F4E12FF0E0E75AE2
:102F4000FD4F10820E94551680910002882329F0BF
:102F500010E0EACF8D3009F5F0CF8091590284322C
:102F600029F489E592E00E94783E14C02091010284
:102F7000309102022130310529F489E00E94B237F4
:102F800089E00FC0803411F4F19AE2CF89E592E034
:102F90000E94980B811105C0DBCF1E3F08F4B7CF0C
:102FA0008BE00E94B237D4CF0E9467170E9455165B
:102FB00080910002882309F4B7CF0F90DF91CF9161
:102FC0001F91089590912502962381F010925A0343
:102FD00010925B0310925C0310925D0310925E03EB
:102FE00010925F0310926003109261039091B61DDE
:102FF00092FF04C091E0811190E0892F6C738823C7
:1030000021F080910501682B04C080910501609535
:10301000682360930501089510925A0310925B0390
:1030200010925C0310925D0310925E0310925F0396
:10303000109260031092610308956FEF80E00E9488
:10304000E21720E030E040E451E46091721D70919D
:10305000731D8091741D9091751D0E94CB490E9433
:10306000E5476093540470935504809356049093FD
:1030700057040E940C1880910102909102028475FD
:103080009170892BD1F08091AC1D8093A803809121
:10309000AB1D8093A7038091AA1D90E09C01285F3F
:1030A0003F4F220F21952093A603880F819587BD5E
:1030B000809172008260809372000895CF93DF93B5
:1030C0008091AD1D28EC829FC0011124909359037B
:1030D000809358038091570D9091580DA091590DF0
:1030E000B0915A0D816080935A0390935B03A09333
:1030F0005C03B0935D0310925E0310925F03109225
:10310000600310926103DF91CF9108958091720066
:103110008D7F809372008091A100887F8160809371
:10312000A1001092910380910102909102028430DB
:103130009105B9F080349105A1F0F5990FC0809107
:10314000AD1D8F3F71F00E945E188091AD1D90E023
:103150000E94AA2E60912502609501C06FEF81E068
:1031600002C06FEF80E00C94E2172F923F924F92D3
:103170005F926F927F928F929F92AF92BF92CF9207
:10318000DF92EF92FF920F931F93CF93DF93709094
:103190005A03D0915B03C0915C03B0915D03F09141
:1031A0005E03E0915F030091600310916103272D9E
:1031B0003D2F4C2F5B2F6F2F7E2FC801A0E00E9468
:1031C0003C4BF1F18090570D9090580DA090590D07
:1031D000B0905A0D689480F89401A50160E070E009
:1031E00080E090E0A72CBD2ECC2EDB2EEF2EFE2E05
:1031F0000E942A4B20905803309059035101C12C52
:10320000D12CE12CF12C00E010E00E94334BC1F0F6
:10321000B8F06091250281E0DF91CF911F910F916D
:10322000FF90EF90DF90CF90BF90AF909F908F90E6
:103230007F906F905F904F903F902F900C94E2178B
:10324000DF91CF911F910F91FF90EF90DF90CF9082
:10325000BF90AF909F908F907F906F905F904F90B6
:103260003F902F9008958091160D83FD05C08091A9
:10327000160D81111092180D99B18091140D8927A6
:103280009091150D8923C1F180959091A703982302
:103290009093A7039091160D89238093160D80912A
:1032A000160D811107C08091631B83608093631B9F
:1032B000F09A09C080910102909102028068909377
:1032C00002028093010280910102909102028574B2
:1032D0009927892B89F4F5990FC00E94DE0A809105
:1032E00004028260809304028091631B8260809359
:1032F000631B8EB381668EBB08958F929F92AF92AF
:10330000BF92CF92DF92EF92FF920E94DB44209116
:10331000A8034091461B5091471B8091190D909135
:103320001A0D80900D0290900E02A0900F02B090A6
:103330001002C0905404D0905504E0905604F090D0
:10334000570426FF08C04817590798F021E030E0DD
:1033500080E090E00AC031E020E08417950708F48F
:1033600030E0832F922F20E030E0232B39F4892B9B
:1033700029F48C149D04AE04BF0444F01092170D80
:103380008091631B83608093631BF09AFF90EF90A2
:10339000DF90CF90BF90AF909F908F9008951F9235
:1033A0000F920FB60F9211240BB60F920F931F932B
:1033B0002F933F934F935F936F937F938F939F933D
:1033C000AF93BF93EF93FF93179A8091910381116D
:1033D0007FC2809102019091A803907F8F70892B0A
:1033E0008093020180910201807F9091A703892B35
:1033F0008093BC038091A60386BD82E085BD81E0F9
:103400008093910378948091BF039091C003892B9E
:1034100009F0C4C08091940390919303981709F424
:10342000B9C0E09194032E2F30E007E0E09FF00157
:103430001124EF53FC4FF093C003E093BF0382814C
:1034400093819093A9008093A800808191819093AB
:10345000BA038093B903E4818091BB038E17A1F175
:10346000E093BB0315E1E19FF0011124E551FC4F0E
:10347000F093BE03E093BD0381899289A389B48947
:10348000B695A79597958795809395039093960306
:10349000A0939703B09398038093990390939A0312
:1034A000A0939B03B0939C0380939D0390939E03F2
:1034B000A0939F03B093A0038093A1039093A203D2
:1034C000A093A303B093A403E091BD03F091BE03C6
:1034D0009091AC1D808189278093A80387E0829F0B
:1034E000D001839FB00D1124AF53BC4F15968C9122
:1034F0004181528163817481082E04C0769567955D
:10350000579547950A94D2F74093A9035093AA037D
:103510006093AB037093AC034581568167817085DE
:10352000082E04C076956795579547950A94D2F76B
:103530004093AD035093AE036093AF037093B00319
:103540004185528563857485082E04C076956795FC
:10355000579547950A94D2F74093B1035093B2031D
:103560006093B3037093B40345855685678570896E
:103570008A019B0104C036952795179507958A9572
:10358000D2F70093B5031093B6032093B70330939B
:10359000B80304C00E948618F29A9AC18091D91D7E
:1035A00081110E949F2D1092A7034091A903509171
:1035B000AA036091AB037091AC0380919503909145
:1035C0009603A0919703B0919803840F951FA61FAF
:1035D000B71F8093950390939603A0939703B0939E
:1035E0009803E091BD03F091BE034189528963893C
:1035F0007489481759076A077B0768F521E020930B
:10360000A7034189528963897489841B950BA60B92
:10361000B70B8093950390939603A0939703B09371
:10362000980320818091050290910602A0910702E3
:10363000B091080224FF04C00197A109B10903C099
:103640000196A11DB11D8093050290930602A093DF
:103650000702B09308024091AD035091AE03609110
:10366000AF037091B0038091990390919A03A09158
:103670009B03B0919C03840F951FA61FB71F8093D7
:10368000990390939A03A0939B03B0939C03418961
:10369000528963897489481759076A077B0778F547
:1036A0002091A70322602093A7034189528963894F
:1036B0007489841B950BA60BB70B80939903909389
:1036C0009A03A0939B03B0939C03208180910902ED
:1036D00090910A02A0910B02B0910C0225FF04C048
:1036E0000197A109B10903C00196A11DB11D8093E5
:1036F000090290930A02A0930B02B0930C0240912E
:10370000B1035091B2036091B3037091B4038091FF
:103710009D0390919E03A0919F03B091A003840FFD
:10372000951FA61FB71F80939D0390939E03A093A0
:103730009F03B093A0034189528963897489481714
:1037400059076A077B0778F52091A7032460209327
:10375000A7034189528963897489841B950BA60B41
:10376000B70B80939D0390939E03A0939F03B09308
:10377000A003208180910D0290910E02A0910F0272
:10378000B091100226FF04C00197A109B10903C03E
:103790000196A11DB11D80930D0290930E02A0937E
:1037A0000F02B09310024091B5035091B60360919F
:1037B000B7037091B8038091A1039091A203A091E7
:1037C000A303B091A403840F951FA61FB71F809376
:1037D000A1039093A203A093A303B093A4034189F0
:1037E000528963897489481759076A077B0778F5F6
:1037F0002091A70328602093A703418952896389F8
:103800007489841B950BA60BB70B8093A10390932F
:10381000A203A093A303B093A4032081809111027B
:1038200090911202A0911302B091140227FF04C0DC
:103830000197A109B10903C00196A11DB11D809393
:10384000110290931202A0931302B09314020E94EB
:1038500033198091170D81110E947D198091DE1D11
:1038600081110E946D360E9493378091B903909127
:10387000BA0301979093BA038093B903892BF9F4A3
:10388000E091BF03F091C0038681882359F08091B5
:1038900003028160809303028091631B81608093A7
:1038A000631BF09A1092C0031092BF03809194039F
:1038B0008F5F80939403863011F41092940390915B
:1038C000AB1D8091A70389278093A70310929103D2
:1038D0001798FF91EF91BF91AF919F918F917F9139
:1038E0006F915F914F913F912F911F910F910F9089
:1038F0000BBE0F900FBE0F901F9018951F920F9246
:103900000FB60F9211240BB60F928F939F93EF93E4
:10391000FF93E2E0F1E080819091AB1D9F70807F8A
:10392000892B808315BCFF91EF919F918F910F9010
:103930000BBE0F900FBE0F901F9018951F920F9205
:103940000FB60F9211248F938091BC0380930201D4
:103950008F910F900FBE0F901F9018950E948618A0
:103960008BE2E2E6F3E0DF011D928A95E9F78CE253
:10397000E5E9F3E0DF011D928A95E9F710929003E3
:1039800010928F03109294031092930381E080931E
:103990009203109291030895989A9998A09AA198E9
:1039A0008FEF87B99091D21D98B980930A01209129
:1039B000D31D34E0239FC0011124822B80930B017F
:1039C00080B3807F80BB259A249A2D9A2C9A089ADE
:1039D000109889EA8093900089E08093910010927A
:1039E00092006C9A6D9A6B9A83B383BB8EEF80932F
:1039F00098009091D41D90939A0080939C00089514
:103A00008091D41D80939A000895CF93DF93A1E015
:103A1000B1E08C918F608C93E2E0F1E08081807F57
:103A20009091AB1D892B8083C4E0D1E088818C63A9
:103A300088838C91806F8C9380818F709091AC1D66
:103A4000892B8083E1EAF0E080818F7E8083808112
:103A500088608083E0EAF0E080818C7F80838081D1
:103A60008F708083EEE6F0E08081887F808314BCD5
:103A700015BC808181608083808182608083DF913A
:103A8000CF910C94CC1CCF93DF93C0918F03D09136
:103A900090032097B9F081E08093630360917903EC
:103AA00070917A0380917B0390917C039B01AC0120
:103AB0000E94CB496D8B7E8B8F8B988F10929003D9
:103AC00010928F03DF91CF9108952F923F924F92E2
:103AD0005F926F927F928F929F92AF92BF92CF929E
:103AE000DF92EF92FF920F931F93CF93DF93CDB7A7
:103AF000DEB7E6970FB6F894DEBF0FBECDBF90914C
:103B0000940380919203981709F450C680918F0313
:103B100090919003892B09F084C20E94CD291C0149
:103B20009093900380938F03892B09F43FC6809173
:103B300063030091010210910202882319F0109290
:103B40006303E2C0809162038F5F853019F0809338
:103B5000620302C010926203E091620325E12E9F8E
:103B6000F0011124E551FC4FF0938E03E0938D0397
:103B7000D1018C91808311964D915D916D917C91D5
:103B80001497DB01CA0123E0880F991FAA1FBB1FEE
:103B90002A95D1F781839283A383B483D1011596AB
:103BA0004D915D916D917C911897DB01CA0133E0D5
:103BB000880F991FAA1FBB1F3A95D1F7858396835B
:103BC000A783B087D10119964D915D916D917C913C
:103BD0001C97DB01CA0143E0880F991FAA1FBB1F76
:103BE0004A95D1F781879287A387B487D1011D9623
:103BF0004D915D916D917C915097DB01CA0153E02D
:103C0000880F991FAA1FBB1F5A95D1F785879687E2
:103C1000A787B08BD10151964D915D916D917C91AB
:103C20005497DB01CA0163E0880F991FAA1FBB1FCD
:103C30006A95D1F7818B928BA38BB48BF10161894B
:103C40007289838994890E941B48609364037093EE
:103C500065038093660390936703D10195962D9138
:103C60003D914D915C9198970E9473479B01AC01E7
:103C7000609368037093690380936A0390936B0366
:103C800060E070E080EA9FE30E94734760936C03FA
:103C900070936D0380936E0390936F031092700383
:103CA0001092710310927203109273030032110587
:103CB000D1F460918103709182038091830390918C
:103CC00084036093790370937A0380937B039093CA
:103CD0007C039B01AC010E94CB49F101658B768B83
:103CE000878B908F11C0D10155966D917D918D91EB
:103CF0009C9158970E946A4A6093790370937A0363
:103D000080937B0390937C0310927503109276034B
:103D10001092770310927803F10181A092A0A3A0E2
:103D2000B4A0A501940160E070E080E09FE30E94F0
:103D300073472B013C01D1019596CD90DD90ED901C
:103D4000FC9098970032110509F051C0B2E0B09391
:103D50007403D10155968D919D910D90BC91A02D2C
:103D600089839A83AB83BC839C01AD01C301B201FB
:103D70000E94CB499B01AC01C701B6010E9473466A
:103D80002B013C0120E030E0A9010E94694787FF38
:103D90001DC0A5019401C501B4010E947446A7018C
:103DA00096010E94CB499B01AC0169817A818B818C
:103DB0009C810E9473460E946A4A609381037093BB
:103DC000820380938303909384032BC140927503F5
:103DD0005092760360927703709278031092810379
:103DE0001092820310928303109284031AC11092DE
:103DF0007403C0928503D0928603E0928703F09209
:103E000088030E94DD294B015C016093810370935C
:103E1000820380938303909384039B01AC010E94EF
:103E2000CB496D837E838F83988700918F03109198
:103E30009003D80195968D919D910D90BC91A02DE8
:103E400089879A87AB87BC87D80155968D919D91BC
:103E50000D90BC91A02D89839A83AB83BC832D8167
:103E60003E814F815885BC01CD010E9473469B0164
:103E7000AC01C301B2010E94CB499B01AC01698531
:103E80007A858B859C850E94744620E030E040E076
:103E90005FE30E94CB496B017C0120E030E0A90187
:103EA0000E948B4918160CF0ACC029853A854B85C9
:103EB0005C85C701B6010E94694787FF8EC0F80183
:103EC000858C968CA78CB0A02D813E814F81588522
:103ED000C501B4010E9473469B01AC01C301B2014C
:103EE0000E94CB496093890370938A0380938B036C
:103EF00090938C03A70196010E94694787FF3DC0FC
:103F0000C501B4010E946A4A60937D0370937E03E9
:103F100080937F0390938003A501940169817A8146
:103F20008B819C810E946947811104C0F1E0F0936C
:103F3000740377C029813A814B815C81C501B4014A
:103F40000E9473469B01AC01C301B2010E94CB49A0
:103F50009B01AC016091850370918603809187037A
:103F6000909188030E947346609385037093860343
:103F7000809387039093880354C0C0928503D092A6
:103F80008603E0928703F0928803C0928903D0925F
:103F90008A03E0928B03F0928C03D80191966D9185
:103FA0007D918D919C9194979B01AC010E947446E8
:103FB000A70196010E94CB492D813E814F815885F2
:103FC0000E9474460E946A4A60937D0370937E0348
:103FD00080937F039093800324C0B2E0B093740376
:103FE0008091790390917A03A0917B03B0917C0337
:103FF00080937D0390937E03A0937F03B09380030F
:1040000010C01092850310928603109287031092BD
:10401000880380927D0390927E03A0927F03B092EA
:10402000800380919303082F10E027E0209FF00188
:10403000219FF00D1124EF53FC4F80916203848384
:1040400040918F03509190035F874E87DA019596D8
:10405000BC91B9A7FA01F6A1FAA7DA019796BC912B
:10406000BBA7FA01F0A5FCA720916C0330916D036A
:1040700040916E0350916F0369A57AA58B2F9F2FF6
:104080000E9473466DA37EA38FA398A720E030E023
:10409000A9010E94694787FF04C01DA21EA21FA29A
:1040A00018A6209185032D8B409186034E8B50914D
:1040B00087035F8B80918803888F90917D03998F10
:1040C000A0917E03AA8FB0917F03BB8FE091800304
:1040D000EC8FF0918903FD8F20918A032E8F409100
:1040E0008B034F8F50918C0358A380917403888B5E
:1040F000909179039983A0917A03AD83B0917B036A
:10410000B987E0917C03ED87F0917503F9A32091C5
:1041100076032AA3409177034BA3509178035CA3C5
:104120008091810390918203A0918303B0918403D5
:1041300089AB9AABABABBCAB99A59EABAAA5ADAB1B
:104140002BA43CA48AE0C82E80EED82E8EE1E82E67
:1041500089E3F82E198A1A8A1B8A1C8A26013701DC
:10416000B889BB2321F0B13009F482C0B4C0EE8518
:10417000FF8521A132A143A154A1C701B6010E942C
:10418000CB494B015C0120E030E040E05FE30E945E
:10419000CB499B01AC0169817D8189859D850E9408
:1041A00074469B01AC01C701B6010E94CB499B013B
:1041B000AC016EA97DA9C1010E9473466EAB7DABB7
:1041C0001C012D893E894F89588D0E94694787FFC0
:1041D00042C02D893E894F89588D69A57AA58BA546
:1041E0009CA50E9473469B01AC010E9474466B0122
:1041F0007C01298D3A8D4B8D5C8D69817D8189850E
:104200009D850E9474469B01AC01C701B6010E94C6
:1042100073476B017C012D8D3E8D4F8D58A16D89AB
:104220007E898F89988D0E946947811103C0F2E0D1
:10423000F88B02C021E0288B498D49835A8D5D831C
:104240008B8D89879C8D9D87AD89AEABBE89BDABBB
:104250002F88388CBFC0A501940169817D81898533
:104260009D850E94744669837D8389879D87B2C03E
:10427000A7019601698D7A8D8B8D9C8D0E94CB490B
:104280009B01AC016EA97DA9C1010E9473464B013F
:104290005C012D8D3E8D4F8D58A10E94694787FF8F
:1042A00096C02D8D3E8D4F8D58A16EA97DA9C1015F
:1042B0000E947346298D3A8D4B8D5C8D0E94734709
:1042C0006B017C01ED8DEEABFE8DFDAB2F8C38A02C
:1042D00022E0288B7FC0AE85BF8591962D913D91C0
:1042E0004D915C919497C701B6010E94CB494B0157
:1042F0005C019B01AC0169817D8189859D850E945E
:104300008B491816E4F520E030E040E05FE3C5019A
:10431000B4010E94CB499B01AC0169817D818985F3
:104320009D850E9473469B01AC01C701B6010E94A6
:10433000CB499B01AC016EA97DA9C1010E947346C6
:104340006DA77EA78FA798AB29A13AA14BA15CA12D
:104350000E948B4918169CF4A501940169817D8106
:1043600089859D850E94734669837D8389879D87A2
:10437000BDA5BEABEEA5EDAB2FA438A82BC029A1DF
:104380003AA14BA15CA16EA97DA9C1010E9473460F
:104390009B01AC010E9474466B017C0129A93AA9DA
:1043A0004BA95CA969817D8189859D850E947446A0
:1043B0009B01AC01C701B6010E9473476B017C01F0
:1043C000F9A1FEAB2AA12DAB2BA03CA003C08EAA65
:1043D0009DAA1501A701960169897A898B899C8913
:1043E0000E947446698B7A8B8B8B9C8BA301920104
:1043F0000E94694787FD61C02DA13EA14FA158A52C
:104400006EA97DA9C1010E948B4918160CF44BC0FE
:1044100048894093740389819D81A985BD858093D6
:10442000790390937A03A0937B03B0937C0340902D
:1044300068035090690360906A0370906B032EA923
:104440003DA9A101C301B2010E94CB4969837A83CE
:104450008B839C830E9452476B017C0160916403B3
:104460007091650380916603909167030E945247A3
:104470004B015C01A70196010E9473460E94EC4724
:104480006D837E838F83988757E0509FF001519F03
:10449000F00D1124EF53FC4F8D819E819183808319
:1044A000892B29F14BC02AE030EE4EE159E3C301DC
:1044B000B2010E9474462B013C0129893A894B893B
:1044C0005C89C301B2010E9473466B017C0129A182
:1044D0003AA14BA15CA16EA97DA9C1010E948B49A3
:1044E00018160CF43DCEB889B093740394CF809124
:1044F000010290910202809709F5109279031092BF
:104500007A0310927B0310927C0310927003109236
:1045100071031092720310927303C0926403D092DD
:104520006503E0926603F0926703A3019201C7015D
:10453000B6010E947347EE85FF8524C12091700368
:1045400030917103409172035091730369897A89A4
:104550008B899C890E9474462B013C0129813A81F8
:104560004B815C81C501B4010E9473469B01AC0183
:10457000C301B2010E9473474B015C0129813A815A
:104580004B815C81C701B6010E947346A50194016D
:104590000E94CB4960937003709371038093720300
:1045A0009093730320EC31EE44E65EE4C501B40160
:1045B0000E94CB490E9452470E94EC47603DF7E0C1
:1045C0007F078105910550F427E0209FF001219F8E
:1045D000F00D1124EF53FC4F15824BC0603A4FE0B1
:1045E00074078105910550F457E0509FF001519FE9
:1045F000F00D1124EF53FC4FA1E01AC06034BFE16D
:104600007B078105910558F427E0209FF001219F49
:10461000F00D1124EF53FC4F42E045830AC057E0F0
:10462000509FF001519FF00D1124EF53FC4FA3E078
:10463000A583B7E0B09FF001B19FF00D1124EF53B7
:10464000FC4F2581022E04C0969587957795679536
:104650000A94D2F74D815E8102C0440F551F2A95FE
:10466000E2F7518340836115710551E0850791059B
:1046700058F4A7E0A09FF001A19FF00D1124EF5383
:10468000FC4F7383628304C04FEF5FEF5383428319
:1046900080919203809393038F5F863019F080930B
:1046A000920302C010929203209175033091760319
:1046B00040917703509178036EA97DA9C1010E94B2
:1046C0008B4918160CF5E0918F03F09190038EA999
:1046D0009DA9D10185A396A3A7A3B0A789819A819B
:1046E000AB81BC818093640390936503A0936603C0
:1046F000B093670397E0909FF001919FF00D112414
:10470000EF53FC4F1682FBC9A7E0A09FC001A19FF9
:10471000900D1124FC01EF53FC4FB1E0B68320E073
:1047200030E0A9016EA97DA9C1010E948B4918162C
:10473000B4F51092790310927A0310927B031092D1
:104740007C03109270031092710310927203109206
:104750007303C0926403D0926503E0926603F09203
:10476000670300918F0310919003209168033091AB
:10477000690340916A0350916B03C701B6010E941F
:104780007347F80165A376A387A390A70E945F2DC6
:1047900088E090E0909302028093010207C010929B
:1047A000900310928F030E94B929A9C9E6960FB60B
:1047B000F894DEBF0FBECDBFDF91CF911F910F9157
:1047C000FF90EF90DF90CF90BF90AF909F908F9031
:1047D0007F906F905F904F903F902F900895F99940
:1047E000FECF92BD81BD81E08FBB80B50895F89466
:1047F000F999FECF92BD81BD81E08FBB80B5862740
:10480000482F082E000C550B262F30E0242335238B
:10481000232B39F06F3F19F060BD84E006C084E1BE
:1048200004C0882321F060BD84E28FBBF99A78949C
:1048300008958F929F92AF92BF92CF92DF92EF92A4
:10484000FF920F931F93CF937C014A016B01C40E1B
:10485000D51E8B01C0E05C01A61AB70AC8018A0DFB
:104860009B1D0C151D0599F0C11108C02C2FCC0FF4
:10487000330B232F221F2227221F01C021E0F80122
:1048800061918F01C22FC60F0E94F723E7CF6C2FD3
:10489000C701880D991DCF911F910F91FF90EF9047
:1048A000DF90CF90BF90AF909F908F900C94F723A4
:1048B0008F929F92AF92BF92CF92DF92EF92FF9230
:1048C0000F931F93CF934B017A016C01C40ED51E39
:1048D0008C01C0E05B01A81AB90AC501800F911FC5
:1048E0000C151D0599F00E94EF23C11108C02C2F53
:1048F000CC0F330B232F221F2227221F01C021E0C0
:10490000C22FC80FF80181938F01E7CFC4018E0D2C
:104910009F1D0E94EF2321E030E0C81711F020E036
:1049200030E0C901CF911F910F91FF90EF90DF9080
:10493000CF90BF90AF909F908F900895982F4FEF9A
:1049400050E080E09D5F0C9419244FEF50E0BC01D3
:1049500080EE93E00C94192421E1829FC001112480
:1049600040E150E09E5F0C94192469E480E090E0FF
:104970000E94F72341E750E06AE67DE181E090E0A4
:104980000C9419240F931F93EAE6FDE18EEF94E552
:10499000A5E8B2E480839183A283B38380E090E0B2
:1049A000A0E2B2E484839583A683B78380E090E09D
:1049B000A8ECB3E480879187A287B38740E050E0FA
:1049C00068E672E444875587668777872FE02093EF
:1049D000AA1D40E050E065EA74E4408B518B628B85
:1049E000738B40E050E463E075E4448B558B668B39
:1049F000778B808F918FA28FB38F80E090E0A6E9B4
:104A0000B3E4848F958FA68FB78F80E098ECAFE2E8
:104A1000B8E480A391A3A2A3B3A380E096EDA3E89A
:104A2000B8E484A395A3A6A3B7A380E090E0A1EE89
:104A3000B6E480A791A7A2A7B3A780E090E2ADE774
:104A4000B6E484A795A7A6A7B7A78FE692E1A3E04F
:104A5000BBE38093B21D9093B31DA093B41DB0939C
:104A6000B51D1092AB1D80E48093AC1D8AE097EDDC
:104A7000A3EABCE38093AE1D9093AF1DA093B01D3D
:104A8000B093B11D80E58093B61D1092B71D40E034
:104A900050E068EC72E44093B81D5093B91D6093E8
:104AA000BA1D7093BB1D80E090E0A8E4B3E480934E
:104AB000BC1D9093BD1DA093BE1DB093BF1D8093E0
:104AC000C01D9093C11DA093C21DB093C31D8093C0
:104AD000C41D9093C51DA093C61DB093C71D8093A0
:104AE000C81D9093C91DA093CA1DB093CB1D2AEF7A
:104AF00030E03093CD1D2093CC1D00E010E020E885
:104B00003FE30093CE1D1093CF1D2093D01D309313
:104B1000D11D2AEF2093AD1D40AB51AB62AB73ABFF
:104B200084AB95ABA6ABB7AB80E090E0A8E4B2E471
:104B300080AF91AFA2AFB3AF80E090E8AEE3B4E452
:104B400084AF95AFA6AFB7AF85E58093D21D109225
:104B5000D31D8DE48093D41D1092D91D80E090E088
:104B6000A8E4B1E48093D51D9093D61DA093D71DE2
:104B7000B093D81D1092DA1D1F910F910C94B5249B
:104B80001F93CF93DF93182FEB01282F30E02D5F79
:104B90003F4F4FEF50E060E0722FCE010E9458244B
:104BA000892B39F41882BE01812F0E949E2480E057
:104BB00001C081E0DF91CF911F910895CF93DF93E2
:104BC000EC014FEF50E060EE73E00E945824892B17
:104BD00031F41882CE010E94A52480E001C081E05A
:104BE000DF91CF9108951F93CF93DF93182FEB019F
:104BF00081E1189FB00111247E5F40E150E0CE01B9
:104C00000E945824892B59F480E1FE0111928A9563
:104C1000E9F7BE01812F0E94AC2480E001C081E051
:104C2000DF91CF911F91089580E090E00E94EF23E3
:104C3000893459F441E750E061E070E08AE69DE193
:104C40000E94582421E0892B09F420E0822F089546
:104C5000CF92DF92EF92FF92CF93DF93EC016A0144
:104C60007B0120E030E0A901C701B6010E9469473D
:104C700087FDE6C1CB32D10508F0E4C1FE018827EB
:104C8000EE56FF4F8F4F0C94024BCC0FDD1FCC0F15
:104C9000DD1FC659D24EC882D982EA82FB82CCC1BE
:104CA000C0927A1DD0927B1DE0927C1DF0927D1DFA
:104CB000C3C1C0927E1DD0927F1DE092801DF092F4
:104CC000811DBAC1C092821DD092831DE092841DC5
:104CD000F092851DB1C1C092861DD092871DE092D1
:104CE000881DF092891DA8C120E030E040E752E421
:104CF000C701B6010E94CB4920E030E040E752E412
:104D00000E94CB4960938A1D70938B1D80938C1DEC
:104D100090938D1D91C120E030E040E752E4C7013F
:104D2000B6010E94CB4920E030E040E752E40E9407
:104D3000CB4960938E1D70938F1D8093901D90932F
:104D4000911D7AC120E030E040E752E4C701B6018E
:104D50000E94CB4920E030E040E752E40E94CB497A
:104D60006093921D7093931D8093941D9093951D55
:104D700063C120E030E040E752E4C701B6010E9481
:104D8000CB4920E030E040E752E40E94CB496093F9
:104D9000961D7093971D8093981D9093991D4CC1FB
:104DA000C0929A1DD0929B1DE0929C1DF0929D1D79
:104DB00043C1C0929E1DD0929F1DE092A01DF09213
:104DC000A11D3AC1C092A21DD092A31DE092A41DC4
:104DD000F092A51D31C1C092A61DD092A71DE092F0
:104DE000A81DF092A91D28C120E030E040E450E465
:104DF000C701B6010E94694787FD26C1C701B601F8
:104E00000E94384A0E94EC476093AA1D15C1C70151
:104E1000B6010E94AE4A0E94EC476093AB1D0CC1E4
:104E2000C701B6010E94AE4A0E94EC476093AC1DD8
:104E300003C1C701B6010E94384A0E94EC47609343
:104E4000AD1DFAC0E894F7F8C092AE1DD092AF1D28
:104E5000E092B01DF092B11DEFC0C092B21DD09291
:104E6000B31DE092B41DF092B51DE6C020E030E025
:104E7000A901C701B6010E9469479091B61D882318
:104E800011F091600EC09E7F0CC020E030E0A901BF
:104E9000C701B6010E9469479091B61D882321F091
:104EA00092609093B61DC8C09D7FFBCF20E030E09C
:104EB000A901C701B6010E9469479091B61D8823D8
:104EC00011F09460EECF9B7FECCF20E030E0A901A1
:104ED000C701B6010E9469479091B61D882311F061
:104EE0009064DFCF9F7BDDCF20E030E0A901C701D8
:104EF000B6010E9469479091B61D882321F094FF66
:104F0000A5C09062CECF9F7DCCCF20E030E0A9013C
:104F1000C701B6010E9469479091B61D882311F020
:104F2000986001C0977F9093B61D0E94012F84C0A6
:104F300020E030E0A901C701B6010E9469479091C5
:104F4000B61D882311F09061ACCF9F7CAACFC7011A
:104F5000B6010E94AE4A0E94EC476093B71D6CC038
:104F6000C092B81DD092B91DE092BA1DF092BB1D3F
:104F700063C0C092BC1DD092BD1DE092BE1DF092D8
:104F8000BF1D5AC0C092C01DD092C11DE092C21D6B
:104F9000F092C31D51C0C092C41DD092C51DE092B5
:104FA000C61DF092C71D48C0C092C81DD092C91D31
:104FB000E092CA1DF092CB1D3FC0C701B6010E940E
:104FC000384A0E94EC477093CD1D6093CC1D34C0CD
:104FD000C092CE1DD092CF1DE092D01DF092D11D77
:104FE0002BC0C701B6010E94EC476093D21D24C0BC
:104FF000C701B6010E94EC476093D31D1DC0C701D5
:10500000B6010E94EC476093D41D16C0C092D51D16
:10501000D092D61DE092D71DF092D81D0DC0C701C9
:10502000B6010E94EC476093D91D06C0C701B601C6
:105030000E94EC476093DA1D0E94B52480E007C00F
:1050400084E005C083E003C086E001C08AE0DF9110
:10505000CF91FF90EF90DF90CF9008951F93CF9363
:10506000DF93CDB7DEB760970FB6F894DEBF0FBE03
:10507000CDBF0E941426811107C087E00E94B2377D
:105080000E94C2240E94803810E0BE016F5F7F4FF3
:10509000812F0E94F325811103C087E00E94B2375F
:1050A0001F5F183091F760960FB6F894DEBF0FBE01
:1050B000CDBFDF91CF911F9108952F923F924F92D4
:1050C0005F926F927F928F929F92AF92BF92CF9298
:1050D000DF92EF92FF920F931F93CF93DF93C091D4
:1050E0007E04C11101C0C0E3C150D0917C04CD1732
:1050F00009F41BC1EC2EF12C2DE2C29F800111247A
:1051000000581B4FF801A18CB28CC38CD48C61A1C8
:1051100072A183A194A19B01AC010E947446F80185
:1051200025A136A147A150A50E94CB494B018C0176
:105130009B01AC01B501C6010E94694787FD02C011
:10514000540168018DE28E9DF0018F9DF00D1124B8
:10515000E058FB4FC501D601858B968BA78BB08F8E
:10516000C11101C0C0E3C150CD1761F02DE22E9DE9
:10517000C0012F9D900D11249C0120583B4F7901B7
:10518000DDE233C080917F04D8135EC00E94431DCE
:105190005BC0AC2EB12CDA9DC001DB9D900D1124BB
:1051A000FC01E058FB4F6F01C11101C0C0E3C150C9
:1051B00080917F04C81302C00E94431DDA9D8001C4
:1051C000DB9D100D112400581B4FF801818C928C2F
:1051D000A38CB48CA5019401658976898789908D0B
:1051E0000E946947811106C0760180917C04C81332
:1051F000D0CF2AC0F80161A172A183A194A19B0123
:10520000AC010E947446F80125A136A147A150A522
:105210000E94CB49F701258936894789508D0E9424
:1052200074462B013C01A50194010E946947F801D5
:1052300087FF05C0458A568A678A708ED5CF858AD2
:10524000968AA78AB08ED0CFD0917C04FDE2DF9FF2
:105250008001112400581B4FC1E0CD0FC03309F469
:10526000C0E020907E048DE2382EC21509F45BC0A8
:10527000CC2ED12C3C9CC0013D9C900D11249C0156
:1052800020583B4F7901F801458856886788708C13
:10529000F90185889688A788B08CA5019401C3017F
:1052A000B2010E94694787FF24C0F80161A172A181
:1052B00083A194A19B01AC010E947446F80125A131
:1052C00036A147A150A50E94CB499B01AC01C30167
:1052D000B2010E9474462B013C01A50194010E9479
:1052E000694787FF06C0F701458A568A678A708E2C
:1052F000DC2F3C9CF0013D9CF00D1124E058FB4F4D
:10530000218D328D438D548D658976898789908D65
:105310000E946947811101C0DC2FCF5FC03309F4BF
:10532000C0E08701A2CFD0937C04DF91CF911F9181
:105330000F91FF90EF90DF90CF90BF90AF909F9034
:105340008F907F906F905F904F903F902F90089537
:1053500084E2E8E5F4E0DF011D928A95E9F7109216
:105360007F0410927E0481E080937D0410927C047F
:10537000089590917F0480917E04891769F081E0FF
:10538000890F803309F480E020917C04921302C0DD
:1053900080937C0480937F04089580917F04909192
:1053A0007E04981739F02DE2829FC00111248058A5
:1053B0009B4F089580E090E00895E0917F04EF5FB7
:1053C000E03309F4E0E080917E04E81761F08DE2BB
:1053D000E89FF0011124E058FB4F658976898789A1
:1053E000908D0C946A4A60E070E0CB01089581E0F2
:1053F00020917F0490917D04291380E008952F92DD
:105400003F924F925F926F927F928F929F92AF9254
:10541000BF92CF92DF92EF92FF920F931F93CF93A1
:10542000DF93CDB7DEB7EE970FB6F894DEBF0FBEB1
:10543000CDBF4FA358A769A7272E322E4701580189
:1054400020917E04422F50E05BA74AA75DE2259F92
:10545000F0011124E058FB4F118A128A138A148A32
:1054600015A216A217A210A6108249E956E766E90E
:105470007EE741A352A363A374A3E1A6F2A603A708
:1054800014A79FA78EA78AE69DE199AF88AFAE01CA
:105490004F5E5F4F5FAB4EAB88E594E09DAB8CAB4E
:1054A000405151095DA74CA73DE2239FC001112443
:1054B0009DAF8CAF59AB48AB00E010E01EA21DA21F
:1054C000FAA3E9A37196FBAFEAAF49A15AA14B5DDC
:1054D0005F4F5CA34BA3EEA5FFA5619171918191F4
:1054E0009191FFA7EEA7FDA1FEAFE8ADF9AD419008
:1054F000519061907190F9AFE8AFA30192010E94C1
:10550000CB490E949849EEA9FFA9619371938193B9
:105510009193FFABEEABECA9FDA9C190D190E190C6
:10552000F190FDABECAB6C197D098E099F096B0105
:105530007C0197FF07C0CC24DD247601C61AD70A68
:10554000E80AF90AECADFDADE00FF11FE058FB4FA2
:10555000C182D282E382F482EAADFBAD2081318147
:1055600042815381C216D306E406F50610F46901A0
:105570007A01EAADFBADC082D182E282F3820E9461
:105580001D48A30192010E9473472B013C01E8A929
:10559000F9A96193719381939193F9ABE8AB20E002
:1055A00030E0A9010E94694787FF0DC080E190E0CB
:1055B0000EAC02C0880F991F0A94E2F7E9A1FAA184
:1055C0009081892B8083A3019201C301B2010E94C3
:1055D000CB49EBA1FCA120813181428153810E9402
:1055E0007446EBA1FCA160837183828393832DA118
:1055F0003EA12F5F3F4F3EA32DA30C5F1F4F0031F5
:10560000110509F068CF0E946A4AEBA1FCA16083F2
:10561000718382839383CD28CE28CF28A1F4C5013E
:10562000B40170680E940141813009F002C280918A
:1056300003028160809303028091631B81608093E9
:10564000631BF09AF6C18114F0E89F06A104B1042F
:1056500021F0C501B4010E94014120E030E0A90120
:105660006FA178A589A5922D0E94694787FD1BC06F
:10567000332009F18DE22AA53BA5829FF001839F8B
:10568000F00D1124E058FB4F2FA138A549A5522D4C
:1056900065A176A187A190A50E9473476FA378A703
:1056A00089A7292E08C039E93FA346E748A756E94C
:1056B00059A78EE7282E8DE2EAA5FBA58E9F8001D3
:1056C0008F9F100D112400581B4FF80125A136A102
:1056D00047A150A560E070E080E89FE30E94734717
:1056E00068AB79AB8AAB9BAB1AA219A2812C912C27
:1056F000540198012F5D3F4F3EA32DA3ECA5FDA5BE
:10570000C080D180E280F38020E030E0A901C701B1
:10571000B6010E946947882309F47FC028A939A9E6
:105720004AA95BA9C701B6010E94CB492B013C01E4
:10573000ECA5FDA560837183828393839B01AC01FB
:1057400060E070E080E89FE30E9473476B017C019A
:10575000E894F7F829A13AA12659324E3FA72EA77F
:10576000F9012089318942895389C701B6010E9414
:10577000CB496BA3372E8C01262F372FAC016FA19D
:1057800078A589A5922D0E94694787FD05C0FBA1D8
:10579000FFA338A609A7212EEDA1FEA1F081FBA34E
:1057A000EDA1FEA1018112813380EEA5FFA520A10C
:1057B00031A142A153A1C701B6010E94CB497B018F
:1057C0006C019B01AC016BA1702F812F932D0E9466
:1057D000694787FD04C0EBA20F2D1C2D3D2C8BA12A
:1057E000902FA12FB32DEDA1FEA180839183A283E1
:1057F000B383E9A1FAA1E85AFB4F20893189428994
:105800005389C301B2010E94CB499B01AC01C50180
:10581000B4010E9473464B015C012CA53DA52C5F91
:105820003F4F3DA72CA749A15AA14C5F5F4F5AA3F8
:1058300049A34031510509F061CF90917E048091D8
:105840007F0498130FC08DE22AA53BA5829FF0012B
:10585000839FF00D1124E058FB4F158A168A178A92
:10586000108E47C0A501940160E070E080E89FE3DE
:105870000E94734620E030E040E05FE30E94CB49A5
:105880000E946A4A6B017C018DE24AA55BA5849F58
:10589000F001859FF00D1124E058FB4F2091AE1DC3
:1058A0003091AF1D4091B01D5091B11D61A172A109
:1058B00083A194A10E94CB49A70196010E94CB49E4
:1058C0004B015C01A701960160E070E080E89FE376
:1058D0000E9473469B01AC01C501B4010E9473474D
:1058E0004B015C0120E030E0A9010E94694787FF7D
:1058F00004C0812C912CA12CB12C2FA138A549A535
:10590000522D6FA178A589A5922D0E94CB497B01CC
:105910008C018DE22AA53BA5829FF001839FF00DAB
:105920001124E058FB4FC701D801858F968FA78FB0
:10593000B0A36090780470907904C0907A04D090FD
:105940007B049301A601B701C8010E94694787FD46
:1059500005C0762D672D9C2D8D2D04C07E2D6F2DBD
:10596000902F812F272F362F492F582FB401C50193
:105970000E94694787FD0BC09301A601B701C801CA
:105980000E94694787FF05C03701680102C03401E2
:1059900065018DE24AA55BA5849FF001859FF00D0E
:1059A0001124E058FB4FC301D601818F928FA38F42
:1059B000B48F80E1FE013196A8E6B4E001900D922B
:1059C0008A95E1F7C701D801809378049093790410
:1059D000A0937A04B0937B0480E1FE017196A8E560
:1059E000B4E001900D928A95E1F780917D04809357
:1059F0007E048F5F803309F480E080937D04EE960F
:105A00000FB6F894DEBF0FBECDBFDF91CF911F91CF
:105A10000F91FF90EF90DF90CF90BF90AF909F904D
:105A20008F907F906F905F904F903F902F900C944D
:105A30005D28EE960FB6F894DEBF0FBECDBFDF91A6
:105A4000CF911F910F91FF90EF90DF90CF90BF907B
:105A5000AF909F908F907F906F905F904F903F900E
:105A60002F900895E8E5F4E0A0E0B2E015964D919E
:105A70005D916D917C91189740835183628373830C
:105A800019964D915D916D917C911C97448355833E
:105A9000668377831D964D915D916D917C915097B2
:105AA000408751876287738751968D919D910D90A4
:105AB000BC91A02D84879587A687B78708950E94FB
:105AC000431D80917F0480937C040C945D2880E1C9
:105AD000E5E0F2E0A5E1B2E001900D928A95E1F7F0
