:020000040800F2
:1040000000A00020651E0208AD1E0208AD1E0208B9
:10401000AD1E0208AD1E0208AD1E02080000000021
:104020000000000000000000000000001100020875
:10403000AD1E02080000000089010208C501020847
:10404000AD1E0208AD1E0208AD1E0208AD1E02081C
:10405000AD1E0208AD1E0208AD1E0208AD1E02080C
:10406000AD1E0208AD1E0208AD1E0208AD1E0208FC
:10407000AD1E0208AD1E0208AD1E0208AD1E0208EC
:10408000A1520108AD1E0208AD1E0208AD1E0208B5
:1040900021D80108AD1E0208AD1E0208AD1E02089F
:1040A000AD1E0208AD1E0208AD1E0208AD1E0208BC
:1040B000AD1E0208AD1E0208AD1E0208053B010838
:1040C000153B0108AD1E0208AD1E0208AD1E020818
:1040D000AD1E02085D5301081D540108DD5401089E
:1040E000AD1E0208AD1E02087DC70108AD1E020804
:1040F000AD1E0208AD1E0208AD1E0208AD1E02086C
:10410000000000000000000000000000AD1E0208DA
:10411000AD1E0208AD1E0208AD1E0208AD1E02084B
:10412000AD1E0208AD1E0208AD1E0208AD1E02083B
:10413000AD1E0208AD1E02080000000000000000D5
:10414000AD1E0208AD1E0208AD1E020800000000F0
:10415000000000000000000000000000000000005F
:104160000000000000000000AD1E0208AD1E0208A5
:10417000AD1E02080000000000000000000000006A
:0841800000000000AD1E020862
:1041880010B5054C237833B9044B13B10448AFF389
:1041980000800123237010BD580600200000000095
:1041A80088410008084B10B51BB108480849AFF30F
:1041B80000800848036803B910BD074B002BFBD0EB
:1041C800BDE81040184700BF000000008841000803
:1041D8005C060020580600200000000080B400AFF4
:1041E800144B4FF0FC521A60124B00225A60114BCC
:1041F80000229A600F4B0022DA600E4B00221A61EF
:104208000C4B6FF0FC525A610A4B0C221A62094B94
:1042180000225A62074B00229A62064B0022DA6299
:10422800044B00221A63034B03225A63BD465DF810
:10423800047B70470004014080B485B000AF78600B
:104248000023FB60754BFB607B689B79002B00F0BB
:10425800C8807B681B685B0903F1007303F5026380
:104268005B0118467B681B685B0903F1007303F563
:1042780002635B011A687B681B6803F01F03012156
:1042880001FA03F3DB43134003607B681B685B0997
:104298005A01634B134418467B681B685B095A0133
:1042A8005F4B13441A687B681B6803F01F030121E6
:1042B80001FA03F3DB43134003607B681B791A465A
:1042C8007B681B685B095B011344FA681344FB6055
:1042D800FB68FA6812687968096801F01F01012013
:1042E80000FA01F10A431A604C4BFB607B681B68BB
:1042F8005B095A014B4B134418467B681B685B09E2
:104308005A01484B13441A687B681B6803F01F0363
:10431800012101FA03F3DB43134003607B681B6848
:104328005B095A01404B134418467B681B685B09BC
:104338005A013D4B13441A687B681B6803F01F033E
:10434800012101FA03F3DB43134003607B685B79C7
:10435800102B2ED17B681B685B095A01314B134423
:1043680018467B681B685B095A012E4B13441B686F
:104378007A68126802F01F02012101FA02F213435F
:1043880003607B681B685B095A01274B1344184676
:104398007B681B685B095A01234B13441B687A68C6
:1043A800126802F01F02012101FA02F213430360AE
:1043B8002FE07B685B791A467B681B685B095B01A9
:1043C8001344FA681344FB60FB68FA68126879685A
:1043D800096801F01F01012000FA01F10A431A607F
:1043E80017E07B681B791A467B681B685B095B01D1
:1043F8001344FA681344FB60FB68FA6811687A682A
:10440800126802F01F02012000FA02F2D2430A40A9
:104418001A601437BD465DF8047B704700040140FC
:1044280004040140080401400C04014080B483B036
:1044380000AF78607B6800221A607B6800221A71DE
:104448007B6810225A717B6800229A710C37BD462E
:104458005DF8047B704700BF80B483B000AF78601C
:104468007B685B095A010B4B134418467B685B0950
:104478005A01084B13441B687A6802F01F02012195
:1044880001FA02F2134303600C37BD465DF8047B62
:10449800704700BF1004014080B485B000AF786059
:1044A8000023FB737B685B095A010C4B13441B68A0
:1044B8007A6802F01F02012101FA02F21340002B70
:1044C80002D00123FB7301E00023FB73FB7B18463A
:1044D8001437BD465DF8047B704700BF14040140E3
:1044E80080B483B000AF78607B685B095A01074BE2
:1044F800134419467B6803F01F03012202FA03F3F1
:104508000B600C37BD465DF8047B7047140401400E
:1045180080B485B000AF78600023FB730023BB60D4
:104528007B685B0903F1007303F502635B011B6899
:104538007A6802F01F02012101FA02F21340BB60FF
:104548007B685B095A010D4B13441B687A6802F0BB
:104558001F02012101FA02F21340002B05D0BB68AB
:10456800002B02D00123FB7301E00023FB73FB7BCC
:1045780018461437BD465DF8047B704714040140A3
:1045880080B483B000AF78607B685B095A01074B41
:10459800134419467B6803F01F03012202FA03F350
:1045A8000B600C37BD465DF8047B7047140401406E
:1045B80080B483B000AF78607B681A684FF6FE73EA
:1045C80013407A6813607B6800221A607B680022B7
:1045D8005A607B6800229A607B680022DA607B68F8
:1045E800434A934206D1434A424B5B6843F00F0368
:1045F800536077E07B68404A934206D13D4A3D4B81
:104608005B6843F0F00353606CE07B683B4A93427D
:1046180006D1384A374B5B6843F47063536061E0F6
:104628007B68374A934206D1324A324B5B6843F47F
:104638007043536056E07B68324A934206D12D4A54
:104648002C4B5B6843F4702353604BE07B682E4A25
:10465800934206D1274A274B5B6843F470035360A3
:1046680040E07B68294A934206D1224A214B5B6885
:1046780043F07063536035E07B68254A934206D166
:10468800244A244B5B6843F00F0353602AE07B689D
:10469800214A934206D11F4A1E4B5B6843F0F00340
:1046A80053601FE07B681D4A934206D1194A194B93
:1046B8005B6843F47063536014E07B68184A934264
:1046C80006D1144A134B5B6843F47043536009E006
:1046D8007B68144A934205D10E4A0E4B5B6843F43B
:1046E800702353600C37BD465DF8047B704700BFEC
:1046F80008000240000002401C0002403000024056
:1047080044000240580002406C0002408000024011
:1047180008040240000402401C0402403004024025
:10472800440402405804024080B485B000AF786069
:1047380039600023FB607B681B68FB60FB6823F41F
:10474800FF4323F07003FB603B689A683B681B6A71
:104758001A433B681B691A433B685B691A433B6809
:104768009B691A433B68DB691A433B685B6A1A43D7
:104778003B689B6A1343FA681343FB607B68FA68DB
:104788001A603B689B891A467B685A603B681A68BE
:104798007B689A603B685A687B68DA601437BD4664
:1047A8005DF8047B704700BF80B483B000AF7860C9
:1047B8007B6800221A607B6800225A607B680022AE
:1047C8009A607B6800229A817B6800221A617B6864
:1047D80000225A617B6800229A617B680022DA61B4
:1047E8007B6800221A627B6800225A627B6800227A
:1047F8009A620C37BD465DF8047B704780B483B07D
:1048080000AF78600B46FB70FB78002B06D07B6806
:104818001B6843F001027B681A6006E07B681A682F
:104828004FF6FE7313407A6813600C37BD465DF887
:10483800047B704780B483B000AF78600B467B8000
:104848007A887B685A600C37BD465DF8047B7047F0
:1048580080B483B000AF78607B685B689BB2184611
:104868000C37BD465DF8047B704700BF80B485B047
:1048780000AFF860B9601346FB71FB79002B06D0D6
:10488800FB681A68BB681A43FB681A6006E0FB6895
:104898001A68BB68DB431A40FB681A601437BD46C8
:1048A8005DF8047B704700BF80B485B000AF7860C6
:1048B8000023FB730023BB607B6803F08053002B4D
:1048C80003D00C4B1B68BB6002E00B4B1B68BB6042
:1048D800BA687B681340002B02D00123FB7301E008
:1048E8000023FB73FB7B18461437BD465DF8047B39
:1048F800704700BF000402400000024080B483B04B
:1049080000AF78607B6803F08053002B03D0064A21
:104918007B68536002E0054A7B6853600C37BD46EC
:104928005DF8047B704700BF0004024000000240AD
:1049380080B485B000AF78600023FB730023BB60B0
:104948007B6803F08053002B03D00C4B1B68BB60C3
:1049580002E00B4B1B68BB60BA687B681340002BF6
:1049680002D00123FB7301E00023FB73FB7B184695
:104978001437BD465DF8047B704700BF0004024051
:104988000000024080B483B000AF78607B6803F019
:104998008053002B03D0064A7B68536002E0054A27
:1049A8007B6853600C37BD465DF8047B704700BFD9
:1049B800000402400000024080B582B000AF786079
:1049C8004FF00070012102F093FA4FF000700021BF
:1049D80002F08EFA0837BD4680BD00BF80B485B0AE
:1049E80000AF786039600023FB730023BB607B68ED
:1049F8001B6823F002027B681A607B681B6843F01F
:104A080001027B681A6002E0BB680133BB607B6807
:104A18005B6803F00103002B04D1BB686FF07F4291
:104A28009342F1D17B685B6803F00103002B02D14C
:104A38000023FB739CE03B689B79012B06D17B68C4
:104A48001B6843F080027B681A6005E07B681B687E
:104A580023F080027B681A603B68DB79012B06D162
:104A68007B681B6843F040027B681A6005E07B683E
:104A78001B6823F040027B681A603B681B7A012B95
:104A880006D17B681B6843F020027B681A6005E04A
:104A98007B681B6823F020027B681A603B685B7A9E
:104AA800012B06D17B681B6843F010027B681A60F3
:104AB80005E07B681B6823F010027B681A603B687E
:104AC8009B7A012B06D17B681B6843F008027B6840
:104AD8001A6005E07B681B6823F008027B681A608F
:104AE8003B68DB7A012B06D17B681B6843F0040224
:104AF8007B681A6005E07B681B6823F004027B680A
:104B08001A603B689B789A073B68DB781B061A4358
:104B18003B681B791B041A433B685B791B051A43E6
:104B28003B681B88013B1A437B68DA617B681B681A
:104B380023F001027B681A600023BB6002E0BB68B7
:104B48000133BB607B685B6803F00103002B04D072
:104B5800BB686FF07F429342F1D17B685B6803F0DA
:104B68000103002B02D00023FB7301E00123FB7338
:104B7800FB7B18461437BD465DF8047B704700BFC1
:104B880080B485B000AF78600023FB607B689B7AB7
:104B98001A4601239340FB60554A554BD3F800321F
:104BA80043F00103C2F800325149514BD3F81C229B
:104BB800FB68DB431340C1F81C327B681B7B002B6E
:104BC80025D14B494A4BD3F80C22FB68DB431340F1
:104BD800C1F80C3246497B689B7A18467B68DB88AB
:104BE8001B047A6852881A4300F1480341F83320BD
:104BF8003F497B689B7A18467B689B881B047A68C8
:104C080012881A4300F14803DB000B445A607B68A2
:104C18001B7B012B24D13649354BD3F80C22FB687A
:104C28001343C1F80C3232497B689B7A18467B687B
:104C38001B881B047A6852881A4300F1480341F81C
:104C480033202B497B689B7A18467B689B881B041A
:104C58007A68D2881A4300F14803DB000B445A6093
:104C68007B68DB7A002B09D12149214BD3F8042238
:104C7800FB68DB431340C1F8043207E01C491C4BB6
:104C8800D3F80422FB681343C1F804327B681B89FC
:104C9800002B08D11649164BD3F81422FB68DB43C6
:104CA8001340C1F814327B681B89012B07D11049C6
:104CB8000F4BD3F81422FB681343C1F814327B68F6
:104CC8005B7B012B07D10A49094BD3F81C22FB68EF
:104CD8001343C1F81C32064A054BD3F8003223F0BF
:104CE8000103C2F800321437BD465DF8047B7047F3
:104CF8000064004080B483B000AF78607B68002215
:104D08009A717B680022DA717B6800221A727B68CC
:104D180000225A727B6800229A727B680022DA723B
:104D28007B6800229A707B680022DA707B68032215
:104D38001A717B6802225A717B6801221A800C372B
:104D4800BD465DF8047B704780B483B000AF03466E
:104D5800FB71144A134BD3F8003243F00103C2F835
:104D68000032104A0F4BD3F8003223F47C5323F05F
:104D78000E03C2F800320B490A4BD3F80022FB7924
:104D88001B021343C1F80032064A064BD3F800321F
:104D980023F00103C2F800320C37BD465DF8047BEE
:104DA800704700BF0064004080B483B000AF7860F3
:104DB8000B46FB70FB78002B06D07B681B6843F41E
:104DC80080327B681A6005E07B681B6823F48032B8
:104DD8007B681A600C37BD465DF8047B704700BFDE
:104DE80080B483B000AF78600B46FB70FB78002B73
:104DF8001ED07B681B6843F080027B681A607B6862
:104E0800D3F8843143F480727B68C3F884217B68CB
:104E1800D3F8943143F480727B68C3F894217B689B
:104E2800D3F8A43143F480727B68C3F8A4211DE051
:104E38007B681B6823F080027B681A607B68D3F864
:104E4800843123F480727B68C3F884217B68D3F8AB
:104E5800943123F480727B68C3F894217B68D3F87B
:104E6800A43123F480727B68C3F8A4210C37BD46B3
:104E78005DF8047B704700BF80B485B000AF7860F0
:104E880039600023FB737B689B6803F08063002B09
:104E980002D00023FB7313E07B689B6803F0006378
:104EA800002B02D00123FB730AE07B689B6803F0A8
:104EB8008053002B02D00223FB7301E00423FB7311
:104EC800FB7B042B00F09880FB7BFA7B7968183217
:104ED80012010A44126802F00102796818331B01B2
:104EE8000B441A603B681B7A002B13D1FB7BFA7BBF
:104EF8007968183212010A4411683A681268520532
:104F08003868407A02430A43796818331B010B4416
:104F18001A6015E0FB7BFA7B7968183212010A44A3
:104F280011683A685268D2003868007A02433868D3
:104F3800407A02430A43796818331B010B441A600C
:104F48003B689B7A03F00F03DAB23B689A72FB7BEB
:104F5800FA7B7968183212010A44526822F00F026B
:104F6800796818331B010B445A60FB7BFA7B79681C
:104F7800183212010A4452683968897A0A437968F2
:104F880018331B010B445A60FB7B3A68927B11066D
:104F98003A68527B120411433A68127B12020A43A0
:104FA8003968C97A0A4379681B010B4403F5C4734D
:104FB8001A60FB7B3A68927C11063A68527C1204AC
:104FC80011433A68127C12020A433968C97B0A43C2
:104FD80079681B010B4403F5C4735A60FB7BFA7BA9
:104FE8007968183212010A44126842F0010279689D
:104FF80018331B010B441A60FB7B18461437BD4657
:105008005DF8047B704700BF80B485B000AF78605E
:105018000B46FB700023FB60FB78012B09D0022BA9
:105028000DD0002B11D17B689A68264B1340FB608A
:105038000EE07B689A68244B1340FB6008E07B68AD
:105048009A68224B1340FB6002E00023FB6000BF1C
:10505800FB681F4A93421BD01D4A934208D81D4A39
:10506800934212D0174A934218D0002B0AD01EE060
:10507800194A93420FD0154A934215D0124A9342C7
:105088000FD014E00223FB6014E00023FB6011E062
:105098000023FB600EE00023FB600BE00123FB60B4
:1050A80008E00123FB6005E00123FB6002E0002328
:1050B800FB6000BFFB68DBB218461437BD465DF8DD
:1050C800047B70470300000400030008000003107D
:1050D80000010008010000040000011080B483B042
:1050E80000AF78600B46FB70FB78012B0BD0022BCE
:1050F80010D0002B00D014E07B689B6843F080023E
:105108007B689A600DE07B689B6843F400427B688B
:105118009A6006E07B689B6843F400027B689A60AB
:1051280000BF0C37BD465DF8047B704780B485B07E
:1051380000AFF8600B467A60FB72FB7AFA681B33A3
:105148001B0113441B68DBB203F00403DAB27B686B
:105158001A727B681B7A002B09D1FB7AFA681B3319
:105168001B0113441B685A0D7B681A6008E0FB7A20
:10517800FA681B331B0113441B68DA087B685A6002
:10518800FB7AFA681B331B0113441B68DBB203F07C
:105198000203DAB27B685A72FB7AFA681B331B0186
:1051A80013445B68DBB203F00F03DAB27B689A72D0
:1051B800FB7AFA681B331B0113445B681B0ADAB2DB
:1051C8007B68DA74FB7AFA681B01134403F5DC7315
:1051D8001B68DAB27B68DA72FB7AFA681B0113443F
:1051E80003F5DC731B681B0ADAB27B681A73FB7A57
:1051F800FA681B01134403F5DC731B681B0CDAB255
:105208007B685A73FB7AFA681B01134403F5DC7355
:105218001B681B0EDAB27B689A73FB7AFA681B016B
:10522800134403F5DC735B68DAB27B68DA73FB7AE4
:10523800FA681B01134403F5DC735B681B0ADAB2D6
:105248007B681A74FB7AFA681B01134403F5DC7354
:105258005B681B0CDAB27B685A74FB7AFA681B012C
:10526800134403F5DC735B681B0EDAB27B689A742F
:10527800FB7A002B06D1FB68DB6843F02002FB6851
:10528800DA6005E0FB681B6943F02002FB681A61DD
:105298001437BD465DF8047B704700BF80B483B007
:1052A80000AF78600B46FB70FB78002B06D17B685B
:1052B800DB6843F020027B68DA6005E07B681B69E5
:1052C80043F020027B681A610C37BD465DF8047B09
:1052D800704700BF80B485B000AF78600B46FB70A4
:1052E8000023FB73FB78002B06D17B68DB68DBB2FD
:1052F80003F00303FB730BE0FB78012B06D17B68FB
:105308001B69DBB203F00303FB7301E00023FB73AB
:10531800FB7B18461437BD465DF8047B704700BF19
:1053280080B485B000AF78600B46FB700023FB7338
:105338006FF07F43BB60FB78002B20D17B681B6834
:1053480023F0030343F001027B681A6002E0BB68A4
:10535800013BBB607B685B6803F00303012B02D051
:10536800BB68002BF3D17B685B6803F00303012B58
:1053780002D00023FB734AE00123FB7347E0FB786C
:10538800012B1ED17B681B6823F003027B681A601F
:1053980002E0BB68013BBB607B685B6803F003030A
:1053A800002B02D0BB68002BF3D17B685B6803F04D
:1053B8000303002B02D00023FB7328E00123FB73B7
:1053C80025E0FB78022B20D17B681B6823F00303C0
:1053D80043F002027B681A6002E0BB68013BBB60D5
:1053E8007B685B6803F00303022B02D0BB68002BC9
:1053F800F3D17B685B6803F00303022B02D0002320
:10540800FB7304E00123FB7301E00023FB73FB7BC8
:1054180018461437BD465DF8047B704780B485B0E4
:1054280000AF78600023FB737B681B6823F00303DD
:1054380043F002027B681A607B685B6803F0030331
:10544800022B01D10123FB73FB7B18461437BD46A1
:105458005DF8047B704700BF80B485B000AF78600A
:105468006FF07F43FB600023FB727B681B6823F0AF
:1054780002027B681A6002E0FB68013BFB607B6804
:105488005B6803F00203002B02D0FB68002BF3D10A
:105498007B685B6803F00203002B01D10123FB72D8
:1054A800FB7A18461437BD465DF8047B704700BF89
:1054B80080B485B000AF78600023FB737B689B697C
:1054C800DBB203F07003FB73FB7B18461437BD4651
:1054D8005DF8047B704700BF80B485B000AF78608A
:1054E8000023FB737B689B691B0EFB73FB7B1846D1
:1054F8001437BD465DF8047B704700BF80B485B0A3
:1055080000AF78600023FB737B689B6903F47F031B
:105518001B0CFB73FB7B18461437BD465DF8047BF8
:10552800704700BF80B485B000AFF860B96013461B
:10553800FB71FB79002B06D0FB685A69BB681A43DC
:10554800FB685A6106E0FB685A69BB68DB431A408E
:10555800FB685A611437BD465DF8047B704700BF8D
:1055680080B485B000AF786039600023FB733B6876
:1055780003F47003002B0DD07B689A693B681340D5
:10558800C3F31303002B02D00123FB7348E000236D
:10559800FB7345E03B6803F08073002B0DD07B68FC
:1055A8005A683B681340C3F31303002B02D001234E
:1055B800FB7335E00023FB7332E03B6803F00063C4
:1055C800002B0DD07B689A683B681340C3F3130324
:1055D800002B02D00123FB7322E00023FB731FE0A2
:1055E8003B6803F00073002B0DD07B68DA683B68DA
:1055F8001340C3F31303002B02D00123FB730FE006
:105608000023FB730CE07B681A693B681340C3F303
:105618001303002B02D00123FB7301E00023FB736B
:10562800FB7B18461437BD465DF8047B704700BF06
:1056380080B485B000AF786039600023FB603B68B8
:10564800164A934203D17B6800229A6121E03B68A5
:10565800C3F31303FB603B6803F00073002B03D014
:105668007B68FA68DA6014E03B6803F08063002B1B
:1056780003D07B68FA681A610BE03B6803F00063AB
:10568800002B03D07B68FA689A6002E07B68FA68AE
:105698005A601437BD465DF8047B70477000F030DF
:1056A80080B584B000AF786039600023FB737B68F5
:1056B8005A693B681340002B00F0B2803B68402BCE
:1056C80062D0402B0FD8042B3AD0042B04D8012BDE
:1056D80024D0022B2BD09FE0102B43D0202B4AD074
:1056E800082B36D098E0B3F5006F00F08380B3F54F
:1056F800006F09D8B3F5007F6AD0B3F5806F70D01A
:10570800B3F5807F5BD087E0B3F5803F45D0B3F534
:10571800003F4BD0B3F5004F75D07DE07B689B68A8
:105728001846434900F0F4F80346FB7377E07B68BA
:10573800DB681846032100F0EBF80346FB736EE0C4
:105748007B68DB681846082100F0E2F80346FB7323
:1057580065E07B68DB681846102100F0D9F803463D
:10576800FB735CE07B681B691846032100F0D0F8E6
:105778000346FB7353E07B681B691846082100F059
:10578800C7F80346FB734AE07B681B69184610217B
:1057980000F0BEF80346FB7341E07B685B6818467F
:1057A800082100F0B5F80346FB7338E07B685B68B6
:1057B8001846102100F0ACF80346FB732FE07B6815
:1057C8009B691846012100F0A3F80346FB7326E005
:1057D8007B689B691846022100F09AF80346FB7320
:1057E8001DE07B689B691846042100F091F8034688
:1057F800FB7314E07B689B691846702100F088F8F9
:105808000346FB730BE07B685B681846042100F0D5
:105818007FF80346FB7302E00023FB7300BF01E03F
:105828000023FB73FB7B18461037BD4680BD00BFC5
:105838000101010080B483B000AF786039603B6833
:10584800B3F5807F43D0B3F5807F0DD8082B2AD0DD
:10585800082B04D8012B1ED0042B20D051E0202B7C
:1058680025D0402B27D04CE0B3F5006F3BD0B3F5E3
:10587800006F06D8B3F5007F2DD0B3F5806F2ED01A
:105888003FE0B3F5803F1AD0B3F5003F1BD0B3F526
:10589800004F2FD035E07B681C4A9A6031E07B6866
:1058A8000822DA602DE07B681022DA6029E07B6844
:1058B80008221A6125E07B6810221A6121E07B68C2
:1058C80008225A601DE07B6810225A6019E07B6844
:1058D80004225A6015E07B6804225A6011E07B6854
:1058E80004225A600DE07B6800229A617B680422DA
:1058F8005A6006E07B6800229A617B6804225A603D
:1059080000BF0C37BD465DF8047B704701010100FC
:1059180080B485B000AF786039600023FB737A6883
:105928003B681340002B02D00123FB7301E00023E6
:10593800FB73FB7B18461437BD465DF8047B704744
:1059480080B582B000AF78607B680D4A93420AD177
:105958004FF40010012101F0CBFA4FF400100021A0
:1059680001F0C6FA09E04FF48000012101F0C0FA05
:105978004FF48000002101F0BBFA0837BD4680BD16
:105988000054004080B485B000AF786039600023CF
:10599800FB607B681B6823F001027B681A607B68E8
:1059A8001B68FB60FA68284B1340FB603B685A6829
:1059B8003B689B681B021343FA681343FB607B68D0
:1059C800FA681A603B681B6823F070627B681A618A
:1059D8007B681B6843F001027B681A600023FB6048
:1059E8007B68FA689A607B68FA68DA603B689A694B
:1059F8003B681B691343FB607B68FA689A607B68A5
:105A08009B6843F400427B689A603B68DB68FB60F4
:105A18007B681A68FB681A437B681A607B685B6856
:105A2800FB60FB6823F0784323F40043FB603B688A
:105A38005B69FA681343FB607B68FA685A6014373D
:105A4800BD465DF8047B7047FFE0CF0080B483B0AB
:105A580000AF78607B6800221A607B6800225A6079
:105A68007B6800229A607B680022DA607B680022EB
:105A78001A617B684FF400425A617B6800229A6180
:105A88000C37BD465DF8047B704700BF80B483B017
:105A980000AF78600B46FB70FB78002B06D07B6864
:105AA8001B6843F001027B681A6005E07B681B688D
:105AB80023F001027B681A600C37BD465DF8047B51
:105AC800704700BF80B483B000AF78607B681B6804
:105AD80023F001027B681A607B681B687B681B687F
:105AE80043F001027B681A600C37BD465DF8047B01
:105AF800704700BF80B485B000AFF860B960134646
:105B0800FB71FB79002B06D0FB681A68BB681A4347
:105B1800FB681A6006E0FB681A68BB68DB431A403A
:105B2800FB681A601437BD465DF8047B704700BFF8
:105B380080B483B000AF78600B46FB70FB78002B15
:105B480006D07B681B6823F400327B681A6005E086
:105B58007B681B6843F400327B681A600C37BD46CB
:105B68005DF8047B704700BF80B483B000AF7860F5
:105B78000B46FB70FB78002B06D07B681B6843F450
:105B880080227B681A6005E07B681B6823F480220A
:105B98007B681A600C37BD465DF8047B704700BF10
:105BA80080B483B000AF78600B46FB70FB78002BA5
:105BB80006D07B68DB6843F400427B68DA6005E066
:105BC8007B68DB6823F400427B68DA600C37BD46EB
:105BD8005DF8047B704700BF80B485B000AF786083
:105BE8000B467B8013467B700023FB607B68DB6879
:105BF800FB60FB6823F4FF6323F00603FB607B88EC
:105C080003F0FE027B781B0203F4E0631343FA6897
:105C18001343FB607B68FA68DA601437BD465DF8A9
:105C2800047B704780B483B000AF78600B46FB708C
:105C3800FB78002B06D07B681B6843F400227B6846
:105C48001A6005E07B681B6823F400227B681A60F1
:105C58000C37BD465DF8047B704700BF80B483B045
:105C680000AF78600B46FB70FB78002B06D07B6892
:105C78001B6843F480327B681A6005E07B681B6808
:105C880023F480327B681A600C37BD465DF8047BCC
:105C9800704700BF80B485B000AF78600B467B804A
:105CA8000023FB607B685B68FB60FB6823F47F7301
:105CB80023F00303FB607B88C3F30903FA681343EB
:105CC800FB607B68FA685A601437BD465DF8047B50
:105CD800704700BF80B483B000AF78600B46FB709C
:105CE800FB78002B06D07B685B6843F400627B6816
:105CF8005A6005E07B685B6823F400627B685A6041
:105D08000C37BD465DF8047B704700BF80B483B094
:105D180000AF78600B46FB70FB78002B06D07B68E1
:105D28005B6843F000727B685A6005E07B685B68DB
:105D380023F000727B685A600C37BD465DF8047B1F
:105D4800704700BF80B483B000AF78600B46FB702B
:105D5800FB78002B06D07B685B6843F080727B6819
:105D68005A6005E07B685B6823F080727B685A6044
:105D78000C37BD465DF8047B704700BF80B485B022
:105D880000AF78600B46FB700023FB607B685B68A4
:105D9800FB60FB6823F47F03FB60FB781B0403F4C0
:105DA8007F03FA681343FB607B68FA685A6014370C
:105DB800BD465DF8047B704780B483B000AF78605F
:105DC8000B467B807B88002B06D17B685B6823F4BD
:105DD80080627B685A6005E07B685B6843F4806298
:105DE8007B685A600C37BD465DF8047B704700BF7E
:105DF80080B483B000AF78600B46FB70FB78002B53
:105E080006D07B685B6843F400527B685A6005E003
:105E18007B685B6823F400527B685A600C37BD4688
:105E28005DF8047B704700BF80B483B000AF786032
:105E38000B46FB70FB78002B06D07B685B6843F44D
:105E480080427B685A6005E07B685B6823F4804287
:105E58007B685A600C37BD465DF8047B704700BF0D
:105E680080B483B000AF78600B46FB70FB78002BE2
:105E780006D07B685B6843F480527B685A6005E013
:105E88007B685B6823F480527B685A600C37BD4698
:105E98005DF8047B704700BF80B483B000AF7860C2
:105EA8000B46FB70FB78002B06D07B685B6823F4FD
:105EB80000427B685A6005E07B685B6843F40042F7
:105EC8007B685A600C37BD465DF8047B704700BF9D
:105ED80080B483B000AF78607B689B6903F47E036D
:105EE8001B0CDBB218460C37BD465DF8047B7047C7
:105EF80080B485B000AF78600023BB600023FB81CD
:105F08007B689B6903F48033BB60BB68002B02D1BC
:105F18000023FB8102E04FF48063FB81FB89184674
:105F28001437BD465DF8047B704700BF80B487B066
:105F380000AFF8607B600B467B8113467B720023C1
:105F48007B61FB685B687B617A690D4B13407B6101
:105F58007B89C3F309027B7A1B0403F47F031A438A
:105F68007B681A433B6A13437A6913437B61FB6876
:105F78007A695A601C37BD465DF8047B704700BFDC
:105F8800009800FC80B483B000AF78600B46FB70CB
:105F9800FB78002B06D07B681B6843F480027B6883
:105FA8001A6005E07B681B6823F480027B681A602E
:105FB8000C37BD465DF8047B704700BF80B483B0E2
:105FC80000AF78600B46FB70FB78002B06D07B682F
:105FD8005B6943F400427B685A6105E07B685B6952
:105FE80023F400427B685A610C37BD465DF8047B98
:105FF800704700BF80B483B000AF78600B46FB7079
:10600800FB78002B06D07B685B6943F000427B6815
:106018005A6105E07B685B6923F000427B685A613E
:106028000C37BD465DF8047B704700BF80B483B071
:1060380000AF78600B46FB70FB78002B06D07B68BE
:106048005B6943F480527B685A6105E07B685B6951
:1060580023F480527B685A610C37BD465DF8047B97
:10606800704700BF80B485B000AF78600B467B8076
:106078000023FB607B685B69FB60FB6823F47F633C
:1060880023F00F03FB607B88C3F30B03FA68134309
:10609800FB607B68FA685A611437BD465DF8047B7B
:1060A800704700BF80B485B000AF78600B467B8036
:1060B8000023FB607B685B69FB60FB6823F07F6300
:1060C80023F47023FB607B881A04064B1340FA689C
:1060D8001343FB607B68FA685A611437BD465DF864
:1060E800047B70470000FF0F80B483B000AF786076
:1060F8000B46FB70FB78002B06D07B681B6843F4CB
:1061080000027B681A6005E07B681B6823F40002C4
:106118007B681A600C37BD465DF8047B704700BF8A
:1061280080B483B000AF78600B46FB70FB78002B1F
:1061380006D07B681B6843F080627B681A6005E0C4
:106148007B681B6823F080627B681A600C37BD4649
:106158005DF8047B704700BF80B483B000AF7860FF
:106168007B681B6ADBB218460C37BD465DF8047BBA
:10617800704700BF80B485B000AF78600B46FB70F5
:106188000023FB607B68FB60FA78FB681344FB60C4
:10619800FB681B6818461437BD465DF8047B7047DA
:1061A80080B483B000AF78600B46FB70FA787B68E8
:1061B8009A620C37BD465DF8047B704780B483B0A3
:1061C80000AF78607B685B6ADBB218460C37BD4667
:1061D8005DF8047B704700BF80B485B000AFF860FD
:1061E800B9601346FB71FB79002B06D0FB681A686F
:1061F800BB681A43FB681A6006E0FB681A68BB684C
:10620800DB431A40FB681A601437BD465DF8047B0F
:10621800704700BF80B485B000AF78603960002354
:10622800BB600023FB737B689B69BB60BA683B68F3
:106238001340BB60BB68002B02D00123FB7301E055
:106248000023FB73FB7B18461437BD465DF8047BBF
:10625800704700BF80B483B000AF786039607B6856
:106268003A68DA610C37BD465DF8047B704700BFB9
:1062780080B487B000AF786039600023FB600023EA
:10628800FB7500233B613B6803F47C53002B05D06E
:106298007B681B6803F080033B610FE03B6803F0F9
:1062A800C003002B05D07B681B6803F040033B61EB
:1062B80004E07B681A683B6813403B617B689B6914
:1062C800FB60FA683B681340FB60FB68002B05D055
:1062D8003B69002B02D00123FB7501E00023FB750D
:1062E800FB7D18461C37BD465DF8047B704700BF30
:1062F80080B483B000AF786039607B683A68DA614F
:106308000C37BD465DF8047B704700BF80B483B08E
:1063180000AF0346FB80044AFB8813600C37BD4678
:106328005DF8047B704700BF0030004080B483B044
:1063380000AF0346FB71044AFB7953600C37BD4636
:106348005DF8047B704700BF0030004080B483B024
:1063580000AF0346FB80044AFB8893600C37BD46B8
:106368005DF8047B704700BF0030004080B400AF88
:10637800034B4AF6AA221A60BD465DF8047B7047B3
:106388000030004080B483B000AF0346FB80044A6D
:10639800FB8813610C37BD465DF8047B704700BF6E
:1063A8000030004080B400AF034B4CF6CC421A607A
:1063B800BD465DF8047B70470030004080B485B06E
:1063C80000AF0346FB800023FB73094BDA68FB88A8
:1063D8001340002B02D00123FB7301E00023FB7361
:1063E800FB7B18461437BD465DF8047B704700BF39
:1063F8000030004080B400AF1A4A1A4B1B6843F0C3
:10640800010313601749174B5A68174B13404B6029
:10641800144A144B1B6823F0847323F480331360ED
:10642800104A104B1B6823F4802313600D4A0D4B50
:106438005B6823F4FE0353600A4A0A4BDB6A23F4C1
:106448007F5323F03F03D3620649064B1A6B074B71
:1064580013400B63034B00229A60BD465DF8047B32
:10646800704700BF0010024000C0FFF8CCFC000FCE
:1064780080B483B000AF0346FB71054B00221A704D
:10648800034AFB7913700C37BD465DF8047B7047EF
:106498000210024080B582B000AF00233B600023A9
:1064A800FB710023BB71112000F066FD0346BB7130
:1064B8003B6801333B603B68B3F5A06F02D0BB7902
:1064C800002BF0D0112000F057FD0346002B02D01E
:1064D8000123FB7101E00023FB71FB7918460837A3
:1064E800BD4680BD80B485B000AF0346FB71002374
:1064F800FB600A4B1B68FB60FB6823F0F803FB603A
:10650800FB79DB00FA681343FB60044AFB681360FD
:106518001437BD465DF8047B704700BF0010024089
:1065280080B483B000AF0346FB71044AFB79136063
:106538000C37BD465DF8047B704700BF000042423F
:1065480080B483B000AF78600B4A0B4B1B6A23F012
:1065580001031362084A084B1B6A23F00403136201
:106568000549054B1A6A7B6813430B620C37BD4615
:106578005DF8047B704700BF0010024080B483B010
:1065880000AF7860084A084B1B6A23F018031362AF
:106598000549054B1A6A7B6813430B620C37BD46E5
:1065A8005DF8047B704700BF0010024080B483B0E0
:1065B80000AF0346FB71044AFB7913600C37BD46F4
:1065C8005DF8047B704700BF8004424280B483B00A
:1065D80000AF78603960094A084B5B6823F474138C
:1065E80053600648054B5A6879683B680B43134368
:1065F80043600C37BD465DF8047B704700100240CD
:1066080080B483B000AF0346FB71044AFB79136082
:106618000C37BD465DF8047B704700BF60004242FE
:1066280080B485B000AF78600023FB60094BDB6A5B
:10663800FB60FB6823F00F03FB60FA687B68134379
:10664800FB60044AFB68D3621437BD465DF8047BDF
:10665800704700BF0010024080B483B000AF03460B
:10666800FB71044AFB7913600C37BD465DF8047B67
:10667800704700BF4C00424280B483B000AF03466D
:10668800FB71044AFB7913700C37BD465DF8047B37
:10669800704700BF0710024080B485B000AF786033
:1066A8000023FB60094B5B68FB60FB6823F0030376
:1066B800FB60FA687B681343FB60044AFB6853601D
:1066C8001437BD465DF8047B704700BF00100240D8
:1066D80080B400AF054B5B68DBB203F00C03DBB2A0
:1066E8001846BD465DF8047B704700BF00100240A5
:1066F80080B485B000AF78600023FB60094B5B680D
:10670800FB60FB6823F0F003FB60FA687B681343C7
:10671800FB60044AFB6853601437BD465DF8047B90
:10672800704700BF0010024080B485B000AF7860A9
:106738000023FB60094B5B68FB60FB6823F4E063A4
:10674800FB60FA687B681343FB60044AFB6853608C
:106758001437BD465DF8047B704700BF0010024047
:1067680080B485B000AF78600023FB60094B5B689C
:10677800FB60FB6823F46053FB607B68DB00FA680E
:106788001343FB60034AFB6853601437BD465DF84A
:10679800047B70470010024080B48BB000AF786073
:1067A80000233B620023FB610023BB6100237B6164
:1067B80000233B6100237B620023FB600023BB6056
:1067C800924B5B6803F00C033B623B6A042B07D0D7
:1067D800082B09D0002B30D17B688D4A1A6030E035
:1067E8007B688B4A1A602CE0884B5B6803F4701353
:1067F800FB61864B5B6803F48033BB61FB699B0CD0
:106808000233FB61BB69002B05D1FB69814A02FB9E
:1068180003F37B620DE07D4BDB6A03F00F0301336A
:106828007B617B4A7B69B2FBF3F3FA6902FB03F3F2
:106838007B627B687A6A1A6003E07B68744A1A6034
:1068480000BF724B5B6803F0F0033B623B6A1B09B5
:106858003B62714A3B6A13441B78DBB2BB607B68BE
:106868001A68BB68DA407B685A60684B5B6803F457
:10687800E0633B623B6A1B0A3B62674A3B6A13441C
:106888001B78DBB23B617B685A683B69DA407B68FE
:106898009A605E4B5B6803F460533B623B6ADB0AB9
:1068A8003B625D4A3B6A13441B78DBB2FB607B6842
:1068B8005A68FB68DA407B68DA60544BDB6A03F499
:1068C800F8733B623B6A1B093B62544A3B6A32F8E5
:1068D80013309BB23B613B6903F01003002B06D0D9
:1068E8007A6A3B69B2FBF3F27B681A6103E07B6862
:1068F8001A687B681A61454BDB6A03F478533B627C
:106908003B6A5B0A3B62454A3B6A32F813309BB2EA
:106918003B613B6903F01003002B06D07A6A3B69A0
:10692800B2FBF3F27B685A6103E07B681A687B6804
:106938005A61364B1B6B03F01003002B03D17B68A5
:10694800334A9A6103E07B681A687B689A612F4B27
:106958001B6B03F02003002B03D17B682C4ADA6100
:1069680003E07B681A687B68DA61284B1B6B03F4C9
:106978008073002B0DD07B681A687B6A9A4208D115
:10698800FA68BB689A4204D17B6A5A007B681A622B
:1069980003E07B68DA687B681A621C4B1B6B03F4A4
:1069A8000073002B0DD07B681A687B6A9A4208D165
:1069B800FA68BB689A4204D17B6A5A007B685A62BB
:1069C80003E07B68DA687B685A62104B1B6B03F044
:1069D8000303002B04D17B68DA687B689A6228E09D
:1069E8000A4B1B6B03F00303012B04D17B681A6865
:1069F8007B689A621DE0054B1B6B03F00303022BB7
:106A08000ED17B684FF400429A6212E000100240F7
:106A180000127A0000093D0000000020100000204C
:106A2800604B1B6B03F00303032B02D17B685E4AA8
:106A38009A625C4B1B6B03F44033002B04D17B68D8
:106A48009A687B68DA6221E0564B1B6B03F440338B
:106A5800B3F5803F04D17B681A687B68DA6215E079
:106A6800504B1B6B03F44033B3F5003F04D17B68F4
:106A78004FF40042DA6209E04A4B1B6B03F44033DF
:106A8800B3F5403F02D17B68474ADA62454B1B6B3E
:106A980003F44023002B04D17B689A687B681A634F
:106AA80021E0404B1B6B03F44023B3F5802F04D146
:106AB8007B681A687B681A6315E03A4B1B6B03F412
:106AC8004023B3F5002F04D17B684FF400421A63CA
:106AD80009E0344B1B6B03F44023B3F5402F02D17C
:106AE8007B68314A1A632F4B1B6B03F44013002B4E
:106AF80004D17B689A687B685A6321E0294B1B6B39
:106B080003F44013B3F5801F04D17B681A687B68CF
:106B18005A6315E0234B1B6B03F44013B3F5001FB6
:106B280004D17B684FF400425A6309E01D4B1B6B8C
:106B380003F44013B3F5401F02D17B681A4A5A6325
:106B4800184B1B6B03F44003002B04D17B689A6835
:106B58007B689A6321E0134B1B6B03F44003B3F586
:106B6800800F04D17B681A687B689A6315E00D4B27
:106B78001B6B03F44003B3F5000F04D17B684FF49B
:106B880000429A6309E0074B1B6B03F44003B3F51B
:106B9800400F02D17B68044A9A632C37BD465DF8E2
:106BA800047B70470010024000127A0080B485B060
:106BB80000AF78600023FB607B681B0FFB60FB68FD
:106BC800002B06D00B4A0B4BDB6A23F47853D362B5
:106BD80005E0084A074BDB6A23F4F873D3620549DA
:106BE800044BDA6A7B681343CB621437BD465DF801
:106BF800047B70470010024080B485B000AF786015
:106C08000023FB607B681B0FFB60FB68002B06D032
:106C18000B4A0B4B1B6B23F02003136305E0084A58
:106C2800074B1B6B23F0100313630549044B1A6BC6
:106C38007B6813430B631437BD465DF8047B7047CC
:106C48000010024080B485B000AF78600023FB607C
:106C58007B681B0FFB60FB68002B06D00B4A0B4BB5
:106C68001B6B23F40073136305E0084A074B1B6B87
:106C780023F4807313630549044B1A6B7B68134331
:106C88000B631437BD465DF8047B70470010024063
:106C980080B485B000AF78600023FB607B681B0F71
:106CA800FB60FB68013B042B2FD801A252F823F0AC
:106CB800CD6C0008DB6C0008E96C0008F76C000874
:106CC800056D0008174A174B1B6B23F0030313636A
:106CD8001CE0144A134B1B6B23F44033136315E079
:106CE800104A104B1B6B23F4402313630EE00D4A2C
:106CF8000C4B1B6B23F44013136307E0094A094B41
:106D08001B6B23F44003136300E000BF0549054BE8
:106D18001A6B7B6813430B631437BD465DF8047B1D
:106D2800704700BF0010024080B483B000AF7860A5
:106D3800034A7B6813600C37BD465DF8047B7047D7
:106D4800D800424280B483B000AF78600549054B53
:106D58001A6A7B6813430B620C37BD465DF8047BE7
:106D6800704700BF0010024080B483B000AF786065
:106D7800034A7B6813600C37BD465DF8047B704797
:106D8800DC00424280B483B000AF0346FB71044A82
:106D9800FB7913600C37BD465DF8047B704700BF74
:106DA8003C04424280B483B000AF0346FB71044AFE
:106DB800FB7913600C37BD465DF8047B704700BF54
:106DC8004004424280B483B000AF78600B46FB7049
:106DD800FB78002B06D00949084B5A697B68134396
:106DE8004B6106E00549054B5A697B68DB43134054
:106DF8004B610C37BD465DF8047B704700100240BC
:106E080080B483B000AF78600B46FB70FB78002B32
:106E180006D00949084B9A697B6813438B6106E0E1
:106E28000549054B9A697B68DB4313408B610C3736
:106E3800BD465DF8047B70470010024080B483B003
:106E480000AF78600B46FB70FB78002B06D0094931
:106E5800084BDA697B681343CB6106E00549054BAB
:106E6800DA697B68DB431340CB610C37BD465DF8BC
:106E7800047B70470010024080B483B000AF786094
:106E88000B46FB70FB78002B06D00949084B9A6A21
:106E98007B6813438B6206E00549054B9A6A7B6859
:106EA800DB4313408B620C37BD465DF8047B7047AB
:106EB8000010024080B483B000AF78600B46FB70CE
:106EC800FB78002B06D00949084BDA687B68134326
:106ED800CB6006E00549054BDA687B68DB43134065
:106EE800CB600C37BD465DF8047B7047001002404C
:106EF80080B483B000AF78600B46FB70FB78002B42
:106F080006D00949084B1A697B6813430B6106E0F0
:106F18000549054B1A697B68DB4313400B610C3745
:106F2800BD465DF8047B70470010024080B483B012
:106F380000AF03460A46FB711346BB71BB79002BB1
:106F480008D00C490B4B1B78DAB2FB791343DBB240
:106F58000B7009E00749074B1B78DAB2FB79DB4372
:106F6800DBB21340DBB20B700C37BD465DF8047B17
:106F7800704700BF0910024080B487B000AF0346D5
:106F8800FB710023FB6000237B610023FB74FB790A
:106F98005B09DBB2FB60FB68002B03D1164B1B6857
:106FA8007B6110E0FB68012B03D1134B1B6A7B61EB
:106FB80009E0FB68042B03D10F4B5B687B6102E09F
:106FC8000D4B5B6A7B61FB7903F01F03FB60FB6879
:106FD8007A6922FA03F303F00103002B02D001239C
:106FE800FB7401E00023FB74FB7C18461C37BD468C
:106FF8005DF8047B704700BF0010024080B400AF0A
:10700800044A044B5B6A43F080735362BD465DF8E3
:10701800047B70470010024080B485B000AF03467F
:10702800FB710023FB73094B9A68FB791340002B13
:1070380002D00123FB7301E00023FB73FB7B18469E
:107048001437BD465DF8047B704700BF001002404E
:1070580080B483B000AF0346FB71044AFB79137018
:107068000C37BD465DF8047B704700BF0A1002402C
:1070780080B485B000AF78600023FB60094B1B68C3
:10708800FB60FB6823F00303FB60FA687B6813432B
:10709800FB60044AFB6813601437BD465DF8047B47
:1070A800704700BF0020024080B483B000AF0346A1
:1070B800FB71FB79002B06D0084A084B1B6843F08C
:1070C8000803136005E0054A044B1B6823F0080316
:1070D80013600C37BD465DF8047B70470020024002
:1070E80080B483B000AF0346FB71FB79002B06D058
:1070F800084A084B1B6843F01003136005E0054A73
:10710800044B1B6823F0100313600C37BD465DF871
:10711800047B70470020024080B400AF074B1B6916
:1071280003F08003002B05D0044B054A5A60034B3B
:10713800044A5A60BD465DF8047B7047002002404F
:1071480023016745AB89EFCD80B400AF044A044BF7
:107158001B6943F080031361BD465DF8047B7047EB
:107168000020024080B584B000AF78600423FB7330
:107178004FF4302000F022FC0346FB73FB7B042B0A
:107188001AD1104A0F4B1B6943F0020313610D4AD1
:107198007B6853610B4A0B4B1B6943F04003136137
:1071A8004FF4302000F00AFC0346FB73054A054BF8
:1071B8001B6923F002031361FB7B18461037BD4699
:1071C80080BD00BF0020024080B582B000AF04231C
:1071D800FB714FF4302000F0F1FB0346FB71FB79A3
:1071E800042B17D10E4A0E4B1B6943F0040313619D
:1071F8000B4A0B4B1B6943F0400313614FF43020DB
:1072080000F0DCFB0346FB71054A054B1B6923F0C4
:1072180004031361FB7918460837BD4680BD00BFDB
:107228000020024080B584B000AF78603960042344
:10723800FB730023BB604FF4302000F0BFFB034614
:10724800FB73FB7B042B2ED1194A194B1B6943F0A6
:10725800010313617B683A6892B21A804FF43020B8
:1072680000F0ACFB0346FB73FB7B042B15D17B685A
:107278000233BB60BB681A463B681B0C9BB2138089
:107288004FF4302000F09AFB0346FB73084A084B82
:107298001B6923F00103136105E0054A044B1B69D0
:1072A80023F001031361FB7B18461037BD4680BDF0
:1072B8000020024080B584B000AF78600B467B8028
:1072C8000423FB734FF4302000F078FB0346FB7374
:1072D800FB7B042B14D10D4A0C4B1B6943F00103B3
:1072E80013617B687A881A804FF4302000F066FBBF
:1072F8000346FB73054A054B1B6923F00103136121
:10730800FB7B18461037BD4680BD00BF00200240F9
:1073180080B400AF074B1B6903F40073002B05D141
:10732800044B054A9A60034B044A9A60BD465DF8CF
:10733800047B70470020024023016745AB89EFCDED
:1073480080B400AF044A044B1B6923F40073136133
:10735800BD465DF8047B70470020024080B400AF52
:10736800044A044B1B6943F400531361BD465DF89E
:10737800047B70470020024080B582B000AFAA238A
:10738800FB8004237B7100F08DFA0346002B01D0AB
:107398000023FB804FF4302000F010FB03467B7184
:1073A8007B79042B3CD1214A204B1B6943F02003F5
:1073B80013611E4A1D4B1B6943F0400313614FF4D0
:1073C800302000F0FBFA03467B717B79042B1ED139
:1073D800164A164B1B6923F020031361134A134BFB
:1073E8001B6943F010031361114AFB8813804FF4A3
:1073F800302000F0E3FA03467B717B79052B0FD030
:107408000A4A0A4B1B6923F01003136108E07B79D1
:10741800052B05D0054A054B1B6923F010031361A2
:107428007B7918460837BD4680BD00BF0020024062
:1074380000F8FF1F80B584B000AF78604FF6FF7387
:10744800BB814FF6FF737B810423FB737B68DB43AF
:107458007B607B689BB2DBB2BB817B6803F47F43B4
:107468001B0A7B814FF4302000F0A8FA0346FB7317
:10747800FB7B042B29D1174A164B1B6943F01003D9
:107488001361BB89FF2B08D0134ABB8913814FF4C2
:10749800302000F093FA0346FB73FB7B042B0BD1DF
:1074A8007B89FF2B08D00C4A7B8953814FF430200D
:1074B80000F084FA0346FB73FB7B052B05D0054AD5
:1074C800044B1B6923F010031361FB7B184610372C
:1074D800BD4680BD0020024000F8FF1F80B584B083
:1074E80000AF0346FB710423FB734FF4302000F018
:1074F80065FA0346FB73FB7B042B3DD1214A214BE4
:107508001B6943F0200313611E4A1E4B1B6943F09D
:10751800400313614FF4302000F050FA0346FB7328
:10752800FB7B042B1FD1174A164B1B6923F0200342
:107538001361144A134B1B6943F010031361124B78
:10754800FA7992B21A804FF4302000F037FA0346E5
:10755800FB73FB7B052B0FD00A4A0A4B1B6923F0F0
:107568001003136108E0FB7B052B05D0054A054B8A
:107578001B6923F020031361FB7B18461037BD46B7
:1075880080BD00BF0020024000F8FF1F80B584B016
:1075980000AF0346FB710B46BB7113467B71042396
:1075A800FB731B4B1B4A9A60194B1B4A9A604FF49A
:1075B800302000F003FA0346FB73FB7B042B21D138
:1075C800134A134B1B6943F0100313611349FA79EB
:1075D800BB791343DAB27B791343DBB263F0070359
:1075E800DBB29BB24B804FF4302000F0E7F9034642
:1075F800FB73FB7B052B05D0054A054B1B6923F064
:1076080010031361FB7B18461037BD4680BD00BFD1
:107618000020024023016745AB89EFCD00F8FF1F2A
:1076280080B584B000AF0346FB710423FB73184B8D
:10763800184A9A60164B184A9A604FF4302000F0A6
:10764800BDF90346FB73FB7B042B1BD1104A104B7F
:107658001B6943F010031361104AFB7963F01003B0
:10766800DBB29BB253804FF4302000F0A7F90346F9
:10767800FB73FB7B052B05D0054A054B1B6923F0E3
:1076880010031361FB7B18461037BD4680BD00BF51
:107698000020024023016745AB89EFCD00F8FF1FAA
:1076A80080B584B000AF0346FB710423FB73184B0D
:1076B800184A9A60164B184A9A604FF4302000F026
:1076C8007DF90346FB73FB7B042B1BD1104A104B3F
:1076D8001B6943F010031361104AFB7963F0200320
:1076E800DBB29BB253804FF4302000F067F90346B9
:1076F800FB73FB7B052B05D0054A054B1B6923F063
:1077080010031361FB7B18461037BD4680BD00BFD0
:107718000020024023016745AB89EFCD00F8FF1F29
:1077280080B584B000AF0346FB710423FB734FF4AC
:10773800302000F043F90346FB73FB7B042B1BD17D
:10774800104A104B1B6943F0100313610E4AFB7972
:1077580063F04003DBB29BB253804FF4302000F05B
:107768002DF90346FB73FB7B052B05D0054A054B1A
:107778001B6923F010031361FB7B18461037BD46C5
:1077880080BD00BF0020024000F8FF1F80B584B014
:1077980000AF0346FB710423FB73184B184A9A6029
:1077A800164B184A9A604FF4302000F007F9034648
:1077B800FB73FB7B042B1BD1104A104B1B6943F056
:1077C80010031361104AFB7963F07703DBB29BB2B5
:1077D80053804FF4302000F0F1F80346FB73FB7B35
:1077E800052B05D0054A054B1B6923F010031361CF
:1077F800FB7B18461037BD4680BD00BF0020024005
:1078080023016745AB89EFCD00F8FF1F80B584B031
:1078180000AF78600B46FB700423FB734FF43020F5
:1078280000F0CCF80346FB73FB7B042B18D10F4AFE
:107838000E4B1B6943F0100313617B68FA7892B210
:107848001A804FF4302000F0B9F80346FB73FB7B35
:10785800052B05D0054A054B1B6923F0100313615E
:10786800FB7B18461037BD4680BD00BF0020024094
:1078780080B400AF044BDB691B0ADBB21846BD4677
:107888005DF8047B704700BF0020024080B400AF61
:10789800034B1B6A1846BD465DF8047B704700BF62
:1078A8000020024080B483B000AF0023FB71094B75
:1078B800DB69DBB203F00603002B02D00123FB7166
:1078C80001E00023FB71FB7918460C37BD465DF8D3
:1078D800047B70470020024080B483B000AF78601A
:1078E8000B46FB70FB78002B06D00949084B1A6938
:1078F8007B6813430B6106E00549054B1A697B68F1
:10790800DB4313400B610C37BD465DF8047B7047C1
:107918000020024080B485B000AF78600023FB737C
:10792800084BDA687B681340002B02D00123FB73F5
:1079380001E00023FB73FB7B18461437BD465DF856
:10794800047B70470020024080B483B000AF7860A9
:10795800034A7B68D3600C37BD465DF8047B7047EB
:107968000020024080B483B000AF0423FB71124BA7
:10797800DB6803F00103002B02D00123FB7113E045
:107988000D4BDB6803F01003002B02D00223FB71C0
:107998000AE0094BDB6803F00403002B02D0032341
:1079A800FB7101E00423FB71FB7918460C37BD46D7
:1079B8005DF8047B704700BF0020024080B584B0AA
:1079C80000AF78600423FB73FFF7CCFF0346FB731B
:1079D80006E0FFF7C7FF0346FB737B68013B7B604C
:1079E800FB7B012B02D17B68002BF2D17B68002B3B
:1079F80001D10523FB73FB7B18461037BD4680BDBC
:107A080080B582B000AF78607B68264A93420AD17D
:107A18004FF480400121FFF74DFA4FF480400021D8
:107A2800FFF748FA3AE07B681F4A93420AD14FF4BD
:107A380000300121FFF75CFA4FF400300021FFF716
:107A480057FA2BE07B68194A93420AD14FF48020F9
:107A58000121FFF74DFA4FF480200021FFF748FA83
:107A68001CE07B68124A93420AD14FF4002001219E
:107A7800FFF73EFA4FF400200021FFF739FA0DE036
:107A88007B680C4A934209D14FF480100121FFF71B
:107A98002FFA4FF480100021FFF72AFA0837BD4665
:107AA80080BD00BF0038014000440040004800404D
:107AB800004C00400050004080B594B000AF7860A2
:107AC80039600023FB640023BB6400237B647B686C
:107AD8001B6823F001027B681A607B685B687B6423
:107AE8007B6C23F440537B643B689B687A6C13433C
:107AF8007B647B687A6C5A607B681B687B647B6CF0
:107B080023F4B05323F00C037B643B685A683B684A
:107B1800DB681A433B681B6913437A6C13437B6425
:107B28007B687A6C1A607B689B687B647B6C23F447
:107B380040737B643B685B697A6C13437B647B6846
:107B48007A6C9A6007F108031846FEF725FE7B68F1
:107B5800324A934202D13B6BBB6416E07B68304AE1
:107B6800934202D17B6BBB640FE07B682D4A934242
:107B780002D1BB6BBB6408E07B682B4A934202D1FD
:107B8800FB6BBB6401E03B6CBB647B681B6803F464
:107B98000043002B11D0BB6C5A003B681B68B2FB3A
:107BA800F3F3FB64BB6C5B003A681268B3FBF2F159
:107BB80002FB01F29B1A7B640EE03B681B68BA6CFF
:107BC800B2FBF3F3FB643B681A68BB6CB3FBF2F1DE
:107BD80002FB01F29B1A7B643B681B685A087B6CAA
:107BE8009A4202D8FB6C0133FB647B681B6803F480
:107BF8000043002B0BD0FB6C03F00F035B087B6486
:107C0800FA6C4FF6F07313407A6C1343FB64FB6C09
:107C18009AB27B689A815037BD4680BD00380140D2
:107C28000044004000480040004C004080B483B04D
:107C380000AF78607B684FF416521A607B680022A8
:107C48005A607B6800229A607B680022DA607B6851
:107C58000C221A617B6800225A610C37BD465DF818
:107C6800047B704780B485B000AF7860396000232A
:107C7800FB607B685B68FB60FB6823F47063FB60F8
:107C88003B681A683B685B681A433B689B681A4301
:107C98003B68DB681343FA681343FB607B68FA6848
:107CA8005A601437BD465DF8047B704780B483B0D2
:107CB80000AF78607B6800221A607B6800225A60F7
:107CC8007B6800229A607B680022DA600C37BD4628
:107CD8005DF8047B704700BF80B483B000AF786064
:107CE8000B46FB70FB78002B06D07B681B6843F0C3
:107CF80001027B681A6005E07B681B6823F00102BB
:107D08007B681A600C37BD465DF8047B704700BF7E
:107D180080B485B000AFF860B9601346FB71FB7999
:107D2800002B06D0FB681A68BB681A43FB681A6008
:107D380006E0FB681A68BB68DB431A40FB681A60F8
:107D48001437BD465DF8047B704700BF80B483B02C
:107D580000AF78600B46FB70FB78002B06D07B6881
:107D68001B6843F400427B681A6005E07B681B6867
:107D780023F400427B681A600C37BD465DF8047B2B
:107D8800704700BF80B483B000AF78600B46FB70CB
:107D9800FB78002B06D07B689B6843F400627B6805
:107DA8009A6005E07B689B6823F400627B689A60B0
:107DB8000C37BD465DF8047B704700BF80B483B0C4
:107DC80000AF78600B46FB70FB78002B06D07B6811
:107DD8005B6843F400227B685A6005E07B685B6857
:107DE80023F400227B685A600C37BD465DF8047B9B
:107DF800704700BF80B483B000AF78600B46FB705B
:107E0800FB78002B06D07B685B6843F480227B6894
:107E18005A6005E07B685B6823F480227B685A60BF
:107E28000C37BD465DF8047B704700BF80B485B051
:107E380000AFF860B9601346FB71FB79002B06D0E0
:107E4800FB685A68BB681A43FB685A6006E0FB681F
:107E58005A68BB68DB431A40FB685A601437BD4652
:107E68005DF8047B704700BF80B483B000AF7860D2
:107E78000B46FB70FB78002B06D07B685B6843F4ED
:107E880000427B685A6005E07B685B6823F4004227
:107E98007B685A600C37BD465DF8047B704700BFAD
:107EA80080B483B000AF78600B46FB70FB78002B82
:107EB80006D07B685B6843F400027B685A6005E083
:107EC8007B685B6823F400027B685A600C37BD4608
:107ED8005DF8047B704700BF80B483B000AF786062
:107EE80039607B685B6903F07F427B685A617B6815
:107EF8005A693B681A437B685A610C37BD465DF87E
:107F0800047B704780B483B000AF78600B46FB7089
:107F18007B681B8A9BB223F0FF039AB27B681A82A4
:107F28007B681B8A9AB2FB789BB213439AB27B6830
:107F38001A820C37BD465DF8047B704780B483B065
:107F480000AF78600B46FB70FB78002B06D07B688F
:107F58001B6843F002027B681A6005E07B681B68B7
:107F680023F002027B681A600C37BD465DF8047B7B
:107F7800704700BF80B483B000AF786039607B6819
:107F88009B6823F440127B689A607B689A683B6818
:107F98001A437B689A600C37BD465DF8047B7047CE
:107FA80080B483B000AF78600B46FB70FB78002B81
:107FB80006D07B685B6843F480127B685A6005E0F2
:107FC8007B685B6823F480127B685A600C37BD4677
:107FD8005DF8047B704700BF80B483B000AF786061
:107FE80039607B685B6823F4C0027B685A607B68F1
:107FF8005A683B681A437B685A600C37BD465DF87F
:10800800047B704780B483B000AF78600B467B80F8
:108018007B88C3F308039AB27B681A850C37BD4680
:108028005DF8047B704700BF80B483B000AF786010
:108038007B689B8C9BB2C3F308039BB218460C3732
:10804800BD465DF8047B704780B483B000AF7860AC
:108058000B46FB707B685B6823F07F427B685A6045
:108068007B685A68FB781B061A437B685A600C3792
:10807800BD465DF8047B704780B483B000AF78607C
:108088000B46FB70FB78002B06D07B681B6843F41B
:1080980000527B681A6005E07B681B6823F4005275
:1080A8007B681A600C37BD465DF8047B704700BFDB
:1080B80080B483B000AF786039607B681B6823F4B4
:1080C80000627B681A607B681A683B681A437B68A1
:1080D8001A600C37BD465DF8047B704780B483B0E6
:1080E80000AF786039607B685B6823F010027B68BA
:1080F8005A607B685A683B681A437B685A600C3739
:10810800BD465DF8047B704780B483B000AF7860EB
:1081180039607B685B6823F020027B685A607B6863
:108128005A683B681A437B685A600C37BD465DF84D
:10813800047B704780B483B000AF78600B46FB7057
:10814800FB78002B06D07B685B6843F480427B6831
:108158005A6005E07B685B6823F480427B685A605C
:108168000C37BD465DF8047B704700BF80B483B010
:1081780000AF78600B46FB70FB78002B06D07B685D
:108188009B6843F008027B689A6005E07B689B68FF
:1081980023F008027B689A600C37BD465DF8047BC3
:1081A800704700BF80B483B000AF78600B46FB70A7
:1081B8007B681B8A9BB2DBB29AB27B681A827B68A7
:1081C8001B8A9AB2FB789BB21B029BB213439AB2EA
:1081D8007B681A820C37BD465DF8047B704700BF88
:1081E80080B483B000AF78600B46FB70FB78002B3F
:1081F80006D07B689B6843F020027B689A6005E0A4
:108208007B689B6823F020027B689A600C37BD4628
:108218005DF8047B704700BF80B483B000AF78601E
:108228000B46FB70FB78002B06D07B689B6843F0FD
:1082380010027B689A6005E07B689B6823F0100257
:108248007B689A600C37BD465DF8047B704700BFB9
:1082580080B483B000AF78600B46FB707B689B6886
:1082680023F460227B689A607B689A68FB785B04D9
:108278001A437B689A600C37BD465DF8047B7047EB
:1082880080B483B000AF78600B46FB707B685B6995
:1082980023F07F427B685A617B685A69FB781B062A
:1082A8001A437B685A610C37BD465DF8047B7047FA
:1082B80080B483B000AF786039607B689B6823F036
:1082C80004027B689A607B689A683B681A437B68FB
:1082D8009A600C37BD465DF8047B704780B483B064
:1082E80000AF78600B46FB70FB78002B06D07B68EC
:1082F8009B6843F002027B689A6005E07B689B6894
:1083080023F002027B689A600C37BD465DF8047B57
:10831800704700BF80B483B000AF78600B46FB7035
:10832800FB78002B06D07B689B6843F480427B680F
:108338009A6005E07B689B6823F480427B689A60BA
:108348000C37BD465DF8047B704700BF80B483B02E
:1083580000AF786039607B689B6823F400427B68D3
:108368009A607B689A683B681A437B689A600C3706
:10837800BD465DF8047B704780B483B000AF786079
:1083880039607B681B6823F078727B681A607B68A9
:108398001A683B685B051A437B681A600C37BD4650
:1083A8005DF8047B704700BF80B483B000AF78608D
:1083B80039607B681B6823F4F8127B681A607B6855
:1083C8001A683B681B041A437B681A600C37BD4661
:1083D8005DF8047B704700BF80B485B000AFF860DB
:1083E800B9601346FB71FB79002B06D0FB689A68CD
:1083F800BB681A43FB689A6006E0FB689A68BB682A
:10840800DB431A40FB689A601437BD465DF8047B6D
:10841800704700BF80B483B000AF786039607B6874
:108428009B6823F400527B689A607B689A683B6873
:108438001A437B689A600C37BD465DF8047B704729
:1084480080B489B000AFF860B9601346FB710023AF
:10845800BB6100237B6100233B610023FB61FB6858
:10846800FB61BB689BB21B0A9BB2BB61BB68DBB2FA
:108478007B617B69012202FA03F33B61BB69022B32
:1084880003D1FB690433FB6105E0BB69032B02D10F
:10849800FB690833FB61FB79002B06D0FB69FA699D
:1084A80011683A690A431A6006E0FB69FA691168BB
:1084B8003A69D2430A401A602437BD465DF8047B06
:1084C800704700BF80B485B000AFF860B96013464C
:1084D800FB71FB79002B09D0FB681B8B9AB2BB6838
:1084E8009BB213439AB2FB681A830AE0FB681B8BA2
:1084F8009AB2BB689BB2DB439BB213409AB2FB684B
:108508001A831437BD465DF8047B704780B483B086
:1085180000AF786039607B689B6823F480527B6881
:108528009A607B689A683B681A437B689A600C3744
:10853800BD465DF8047B704780B485B000AF7860B5
:1085480039600023FB737B68DA693B681340002BB2
:1085580002D00123FB7301E00023FB73FB7B184669
:108568001437BD465DF8047B704700BF80B483B004
:1085780000AF786039607B683A681A620C37BD468C
:108588005DF8047B704700BF80B487B000AF7860A7
:1085980039600023FB6000237B610023BB6000235C
:1085A800FB743B689BB21B0A9BB2BB603B68DBB2A7
:1085B8007B617B69012202FA03F37B61BB68012BB3
:1085C80005D17B681B687A6913407B610DE0BB6845
:1085D800022B05D17B685B687A6913407B6104E0F4
:1085E8007B689B687A6913407B613B681B0CFB6066
:1085F800FB68012202FA03F3FB607B68DB69FA6817
:108608001340FB607B69002B05D0FB68002B02D070
:108618000123FB7401E00023FB74FB7C18461C3724
:10862800BD465DF8047B704780B485B000AF7860C4
:1086380039600023FB600023BB603B681B0CFB60B8
:10864800FB68012202FA03F3BB607B68BA681A620E
:108658001437BD465DF8047B704700BF80B483B013
:1086680000AF7860054A7B6843F0BF6343F400338A
:10867800D3600C37BD465DF8047B704700ED00E021
:1086880080B487B000AF786000237B6100233B6132
:108698000F23FB607B68DB78002B3AD0274BDB6825
:1086A800DB4303F4E0631B0A7B617B69C3F10403CA
:1086B8003B617B69FA6822FA03F3FB607B685B78AD
:1086C8001A463B6902FA03F37B617B689B781A467A
:1086D800FB6813407A6913437B617B691B017B61EB
:1086E800174A7B681B787969C9B213440A4683F82C
:1086F8000023134A7B681B785B09DBB218467B684A
:108708001B7803F01F03012101FA03F342F820301C
:108718000FE00B497B681B785B09DBB218467B6866
:108728001B7803F01F0301229A4000F1200341F84F
:1087380023201C37BD465DF8047B704700ED00E040
:1087480000E100E080B483B000AF78603960074989
:108758003B6823F0604323F07F037A6813438B6000
:108768000C37BD465DF8047B704700BF00ED00E0A4
:1087780080B483B000AF03460A46FB711346BB7151
:10878800BB79002B06D00949084B1A69FB791343BA
:108798000B6106E00549054B1A69FB79DB43134079
:1087A8000B610C37BD465DF8047B704700ED00E0B7
:1087B80080B483B000AF78607B68042B06D1094A87
:1087C800084B1B6843F00403136005E0054A054B9A
:1087D8001B6823F0040313600C37BD465DF8047B67
:1087E800704700BF10E000E080B582B000AF78604D
:1087F8007B68B3F1A04F03D07B68114A93420AD13A
:108808004FF080500121FEF737FB4FF080500021D8
:10881800FEF732FB11E07B680A4A934203D07B687B
:10882800094A934209D14FF000500121FEF724FB79
:108838004FF000500021FEF71FFB0837BD4680BDF2
:1088480000010050000400500005005080B485B0BD
:1088580000AF786039600023FB607B68DB68FB60F1
:10886800FA68194B1340FB603B681A683B685B6801
:108878001A433B689B681A433B68DB681A433B68AA
:108888001B691A433B685B691A433B689B6913433E
:10889800FA681343FB607B68FA68DA607B681B6BD5
:1088A800FB60FB6823F00F03FB603B681B7F013B09
:1088B8001A46FB681343FB607B68FA681A6314372F
:1088C800BD465DF8047B704707C0FFFD80B483B0E8
:1088D80000AF78607B6800221A607B6800225A60CB
:1088E8007B6800229A607B680022DA607B6800223D
:1088F8001A617B6800225A617B6800229A617B6852
:1089080001221A770C37BD465DF8047B704700BF1B
:1089180080B485B000AF786039600023FB607B6865
:10892800DB6CFB600023FB603B681B7A013B1A464B
:108938003B681B681A433B685B681A433B68DB6803
:108948001B021A433B681B699B031A433B685B691C
:108958001B051A433B689B699B061343FB607B68B6
:10896800FA68DA641437BD465DF8047B704700BFC7
:1089780080B483B000AF78607B6800221A607B689F
:1089880000225A607B6801221A727B680122DA6031
:108998007B6801221A617B6801225A617B68012287
:1089A8009A610C37BD465DF8047B704780B485B08A
:1089B80000AF786039600023FB607B68B3F1A04F9B
:1089C80003D07B681C4A934207D11C4B9B68FB6011
:1089D800FA681B4B1340FB6006E01A4B9B68FB6070
:1089E800FA68174B1340FB603B681A683B685B6882
:1089F8001A433B689B681A433B68DB681B031A43AE
:108A08003B681B7C1B021343FA681343FB607B68BB
:108A1800B3F1A04F03D07B68074A934203D1074ABA
:108A2800FB68936002E0074AFB6893601437BD4611
:108A38005DF8047B704700BF000100500003005040
:108A4800E010FCFF0007005080B483B000AF7860EE
:108A58007B6800221A607B6800225A607B680022CB
:108A68009A607B680022DA607B6800221A740C37EF
:108A7800BD465DF8047B704780B483B000AF786072
:108A88000B46FB70FB78002B06D07B689B6843F095
:108A980001027B689A6005E07B689B6843F00202EC
:108AA8007B689A600C37BD465DF8047B704700BF51
:108AB80080B483B000AF78607B689B6843F0004265
:108AC8007B689A600C37BD465DF8047B704700BF31
:108AD80080B483B000AF78607B68D3F8B4301846B0
:108AE8000C37BD465DF8047B704700BF80B483B087
:108AF80000AF786039607B683A68C3F8B4200C37F7
:108B0800BD465DF8047B704780B483B000AF7860E1
:108B180039607B689B6823F080427B689A607B6839
:108B28009A683B681A437B689A600C37BD465DF8C3
:108B3800047B704780B485B000AF78600023FB7376
:108B48007B689B68002B02DA0123FB7301E000239A
:108B5800FB73FB7B18461437BD465DF8047B7047F2
:108B680080B483B000AF78607B689B6843F00202F2
:108B78007B689A600C37BD465DF8047B704700BF80
:108B880080B485B000AF78600023FB737B689B6876
:108B980003F00203002B02D00123FB7301E0002342
:108BA800FB73FB7B18461437BD465DF8047B7047A2
:108BB80080B483B000AF78600B46FB707B689B681D
:108BC80023F040527B689A60FB78002B06D07B68C4
:108BD8009B6843F080527B689A6005E07B689B68DD
:108BE80043F000527B689A600C37BD465DF8047B01
:108BF800704700BF80B483B000AF78600B46FB704D
:108C08001346BB70BB78002B0BD07B68D3F8B03011
:108C1800FA78012101FA02F21A437B68C3F8B020FE
:108C28000BE07B68D3F8B020FB78012101FA03F34D
:108C3800DB431A407B68C3F8B0200C37BD465DF8AB
:108C4800047B704780B483B000AF78600B46FB703C
:108C5800FB78002B06D07B68DB6843F400127B6846
:108C6800DA6005E07B68DB6823F400127B68DA6071
:108C78000C37BD465DF8047B704700BF80B483B0F5
:108C880000AF78600B46FB70FB78002B06D07B6842
:108C9800DB6843F480427B68DA6005E07B68DB6868
:108CA80023F480427B68DA600C37BD465DF8047BAC
:108CB800704700BF80B485B000AF7860396000238A
:108CC800FB607B68DB68FB60FB6823F0E073FB609C
:108CD800FA683B681343FB607B68FA68DA6014370C
:108CE800BD465DF8047B704780B483B000AF786000
:108CF8000B467B8013463B807B681B6A23F07F63AF
:108D080023F470237A6813627B681A6A7B881B04D1
:108D18001A437B681A627B681B6A23F47F6323F01B
:108D28000F037A6813627B681A6A3B881A437B6868
:108D38001A620C37BD465DF8047B704780B483B077
:108D480000AF78600B46FB701346BB707B685B6AAC
:108D580023F47F027B685A627B685A6AFB781B049B
:108D68001A437B685A627B685B6A23F0FF027B6860
:108D78005A627B685A6ABB781A437B685A620C3716
:108D8800BD465DF8047B704780B483B000AF78605F
:108D98000B46FB701346BB707B689B6A23F47F020B
:108DA8007B689A627B689A6AFB781B041A437B6823
:108DB8009A627B689B6A23F0FF027B689A627B68F1
:108DC8009A6ABB781A437B689A620C37BD465DF88D
:108DD800047B704780B485B000AF78600B46FB70A9
:108DE8000023FB607B68DB68FB60FB6823F0F843CB
:108DF800FB60FB789B06FA681343FB607B68FA68A4
:108E0800DA601437BD465DF8047B704780B485B0DE
:108E180000AF78600B46FB700023FB607B68D3F8DB
:108E2800A030FB60FA680B4B1340FB60FB78012213
:108E380002FA03F3FA681343FB607B68D3F8A020B7
:108E4800FB681A437B68C3F8A0201437BD465DF859
:108E5800047B70470100F8FF80B485B000AF7860EC
:108E68000B46FB700023FB607B68D3F8A430FB60E3
:108E7800FA680B4B1340FB60FB78012202FA03F3FC
:108E8800FA681343FB607B68D3F8A420FB681A4395
:108E98007B68C3F8A4201437BD465DF8047B70478F
:108EA8000100F8FF80B483B000AF78600B46FB7018
:108EB8007B68B3F1A04F03D07B68144A934210D16A
:108EC800FB78002B06D0124A114B9B6843F4000331
:108ED800936016E00E4A0E4B9B6823F400039360E0
:108EE8000FE0FB78002B06D00A4A0A4B9B6843F434
:108EF8000003936005E0074A064B9B6823F40003D0
:108F080093600C37BD465DF8047B70470001005044
:108F1800000300500007005080B483B000AF7860B1
:108F28000B46FB707B68B3F1A04F03D07B68144AF3
:108F3800934210D1FB78002B06D0124A114B9B6844
:108F480043F48003936016E00E4A0E4B9B6823F4AB
:108F5800800393600FE0FB78002B06D00A4A0A4B87
:108F68009B6843F48003936005E0074A064B9B68BF
:108F780023F4800393600C37BD465DF8047B70478B
:108F880000010050000300500007005080B483B077
:108F980000AF78600B46FB707B68B3F1A04F03D03D
:108FA8007B68144A934210D1FB78002B06D0124AF2
:108FB800114B9B6843F08073936016E00E4A0E4B8A
:108FC8009B6823F0807393600FE0FB78002B06D03A
:108FD8000A4A0A4B9B6843F08073936005E0074A8E
:108FE800064B9B6823F0807393600C37BD465DF891
:108FF800047B704700010050000300500007005038
:1090080080B485B000AF7860084611461A4603461A
:10901800FB700B46BB7013467B700023FB6000237C
:10902800BB60BB78042B21D87B681B6BFB60BA78CC
:1090380013465B0013445B001A461F239340BB6032
:10904800BB68DB43FA681340FB60F978BA781346CB
:109058005B0013445B0001FA03F3BB60FA68BB686A
:109068001343FB607B68FA681A6374E0BB78092BCA
:1090780023D87B685B6BFB60BB785A1F13465B0089
:1090880013445B001A461F239340BB60BB68DB4355
:10909800FA681340FB60F978BB785A1F13465B00E7
:1090A80013445B0001FA03F3BB60FA68BB6813431F
:1090B800FB607B68FA685A634DE0BB780E2B25D8B5
:1090C8007B689B6BFB60BB78A3F10A0213465B00CD
:1090D80013445B001A461F239340BB60BB68DB4305
:1090E800FA681340FB60F978BB78A3F10A021346CB
:1090F8005B0013445B0001FA03F3BB60FA68BB68CA
:109108001343FB607B68FA689A6324E07B68DB6B37
:10911800FB60BB78A3F10F0213465B0013445B00AE
:109128001A461F239340BB60BB68DB43FA681340B1
:10913800FB60F978BB78A3F10F0213465B00134478
:109148005B0001FA03F3BB60FA68BB681343FB607A
:109158007B68FA68DA63FB78092B23D97B689B69FB
:10916800FB60FB78A3F10A0213465B001344072255
:1091780002FA03F3BB607B689A69BB68DB431A4059
:109188007B689A617B6899697878FB78A3F10A0211
:1091980013465B00134400FA03F341EA03027B68B9
:1091A8009A611FE07B685B69FB60FB785A1E134677
:1091B8005B001344382202FA03F3BB607B685A69E8
:1091C800BB68DB431A407B685A617B6859697878C9
:1091D800FA7813465B00134400FA03F341EA0302EA
:1091E8007B685A611437BD465DF8047B704700BF41
:1091F80080B483B000AF78600B46FB707B681B6B54
:1092080023F00F027B681A637B681B6BFA78013ABC
:109218001A437B681A630C37BD465DF8047B7047B8
:1092280080B483B000AF78600B467B8013463B80E8
:109238007B68DB6823F47C627B68DA607B68DB68C8
:1092480039887A880A4392B21A437B68DA600C3705
:10925800BD465DF8047B704780B483B000AF78608A
:109268007B689B6843F004027B689A600C37BD46B4
:109278005DF8047B704700BF80B485B000AF7860AC
:109288000023FB737B689B6803F00403002B02D068
:109298000123FB7301E00023FB73FB7B18461437A3
:1092A800BD465DF8047B704780B483B000AF78603A
:1092B8007B689B6843F010027B689A600C37BD4658
:1092C8005DF8047B704700BF80B485B000AF78605C
:1092D8000B46FB700023FB600023BB607B68DB68E8
:1092E800FB60FB6823F46023FB60FB78013BBB60F9
:1092F800BB685B04FA681343FB607B68FA68DA6052
:109308001437BD465DF8047B704700BF80B483B056
:1093180000AF78600B46FB70FB78002B06D07B68AB
:10932800DB6843F480327B68DA6005E07B68DB68E1
:1093380023F480327B68DA600C37BD465DF8047B25
:10934800704700BF80B483B000AF78607B681B6C47
:109358009BB218460C37BD465DF8047B704700BFCA
:1093680080B485B000AF78600023FB607B68B3F100
:10937800A04F03D07B68084A934203D1074BDB68B0
:10938800FB6002E0064BDB68FB60FB68184614379D
:10939800BD465DF8047B7047000100500003005093
:1093A8000007005080B483B000AF78600B46FB70B4
:1093B80013463B807B681B6E23F0F8427B681A6675
:1093C8007B681A6EFB789B061A437B681A667B6873
:1093D8001B6E23F47F6323F00F037A6813667B68A0
:1093E8001A6E3B881A437B681A660C37BD465DF8CF
:1093F800047B704780B483B000AF78600B46FB7085
:1094080013463B807B685B6E23F0F8427B685A66A4
:109418007B685A6EFB789B061A437B685A667B68A2
:109428005B6E23F47F6323F00F037A6853667B68CF
:109438005A6E3B881A437B685A660C37BD465DF8FE
:10944800047B704780B483B000AF78600B46FB7034
:1094580013463B807B689B6E23F0F8427B689A66D4
:109468007B689A6EFB789B061A437B689A667B68D2
:109478009B6E23F47F6323F00F037A6893667B68FF
:109488009A6E3B881A437B689A660C37BD465DF82E
:10949800047B704780B483B000AF78600B46FB70E4
:1094A80013463B807B68DB6E23F0F8427B68DA6604
:1094B8007B68DA6EFB789B061A437B68DA667B6802
:1094C800DB6E23F47F6323F00F037A68D3667B682F
:1094D800DA6E3B881A437B68DA660C37BD465DF85E
:1094E800047B704780B483B000AF78600B46FB7094
:1094F800FB78002B06D07B681B6E43F000427B682C
:109508001A6605E07B681B6E23F000427B681A66CA
:109518000C37BD465DF8047B704700BF80B483B04C
:1095280000AF78600B46FB70FB78002B06D07B6899
:109538005B6E43F000427B685A6605E07B685B6EB1
:1095480023F000427B685A660C37BD465DF8047B01
:10955800704700BF80B483B000AF78600B46FB70E3
:10956800FB78002B06D07B689B6E43F000427B683B
:109578009A6605E07B689B6E23F000427B689A66DA
:109588000C37BD465DF8047B704700BF80B483B0DC
:1095980000AF78600B46FB70FB78002B06D07B6829
:1095A800DB6E43F000427B68DA6605E07B68DB6EC1
:1095B80023F000427B68DA660C37BD465DF8047B11
:1095C800704700BF80B483B000AF78600B46FB7073
:1095D800FB78002B06D07B68DB6843F001027B68D0
:1095E800DA6005E07B68DB6823F001027B68DA60FB
:1095F8000C37BD465DF8047B704700BF80B483B06C
:1096080000AF786039607B68DB6823F002027B6812
:10961800DA607B68DA683B681A437B68DA600C3783
:10962800BD465DF8047B704780B485B000AF7860B4
:109638000B46FB701346BB700023FB60FB78092BBD
:1096480020D9FB78A3F10A0213465B0013440722D2
:1096580002FA03F3FB607B689A69FB68DB431A40F4
:109668007B689A617B689969B878FB78A3F10A02EC
:1096780013465B00134400FA03F341EA03027B68D4
:109688009A611CE0FB785A1E13465B00134438228B
:1096980002FA03F3FB607B685A69FB68DB431A40F4
:1096A8007B685A617B685969B878FA7813465B0019
:1096B800134400FA03F341EA03027B685A61143742
:1096C800BD465DF8047B704780B483B000AF786016
:1096D8007B689B6843F008027B689A600C37BD463C
:1096E8005DF8047B704700BF80B483B000AF78603A
:1096F8007B689B6843F020027B689A600C37BD4604
:109708005DF8047B704700BF80B485B000AF786017
:109718000023FB737B689B6803F00803002B02D0CF
:109728000123FB7301E00023FB73FB7B184614370E
:10973800BD465DF8047B704780B483B000AF7860A5
:109748000B46FB70FB78002B06D07B68DB6843F088
:1097580000727B68DA6005E07B68DB6823F00072E2
:109768007B68DA600C37BD465DF8047B704700BF44
:1097780080B483B000AF78600B46FB70FB78002B99
:1097880006D07B68DB6843F480127B68DA6005E00A
:109798007B68DB6823F480127B68DA600C37BD468F
:1097A8005DF8047B704700BF80B485B000AF786077
:1097B8000B46FB700023FB607B68FB60FB78013B7A
:1097C8009B001A46FB6813448033FB60FB681B68E8
:1097D8009BB218461437BD465DF8047B704700BF3E
:1097E80080B485B000AFF860B9601346FB71FB79AF
:1097F800002B06D0FB685A68BB681A43FB685A609E
:1098080006E0FB685A68BB68DB431A40FB685A608D
:109818001437BD465DF8047B704700BF80B485B03F
:1098280000AF786039600023FB737B681A683B6877
:109838001340002B02D00123FB7301E00023FB73CC
:10984800FB7B18461437BD465DF8047B704700BFA4
:1098580080B483B000AF786039607B683A681A607A
:109868000C37BD465DF8047B704700BF80B485B0F7
:1098780000AF786039600023FB600023FB727B68CF
:10988800B3F1A04F03D07B680D4A934203D10D4B2F
:109898001B68FB6002E00C4B1B68FB60FA683B68C6
:1098A8001340002B02D00123FB7201E00023FB725E
:1098B800FB7A18461437BD465DF8047B704700BF35
:1098C80000010050000300500007005080B483B02E
:1098D80000AF786039607B68B3F1A04F03D07B6834
:1098E8000A4A934206D10A49094B1A683B6813434E
:1098F8000B6005E00749074B1A683B6813430B6088
:109908000C37BD465DF8047B704700BF000100506E
:10991800000300500007005080B485B000AF7860A5
:1099280039600023FB730023BB8100237B817B68A4
:109938001B689AB23B689BB21340BB817B685B682B
:109948009AB23B689BB213407B81BB89002B05D040
:109958007B89002B02D00123FB7301E00023FB73FA
:10996800FB7B18461437BD465DF8047B704700BF83
:1099780080B483B000AF786039607B681A683B6850
:109988001A437B681A600C37BD465DF8047B704744
:1099980080B582B000AF78607B68B3F1904F0AD190
:1099A8004FF400300121FDF767FA4FF40030002131
:1099B800FDF762FA49E07B68254A93420AD14FF4E1
:1099C80080200121FDF758FA4FF480200021FDF78F
:1099D80053FA3AE07B681F4A93420AD14FF40020B9
:1099E8000121FDF749FA4FF400200021FDF744FA60
:1099F8002BE07B68184A93420AD14FF4801001216A
:109A0800FDF73AFA4FF480100021FDF735FA1CE013
:109A18007B68124A93420AD14FF400100121FDF7E6
:109A28002BFA4FF400100021FDF726FA0DE07B68B1
:109A38000B4A934209D14FF480000121FDF71CFA2B
:109A48004FF480000021FDF717FA0837BD4680BDA6
:109A58000004004800080048000C004800100048B6
:109A68000014004880B487B000AF786039600023E4
:109A78007B6100233B610023FB6000237B617CE06A
:109A88007B69012202FA03F33B613B681A683B6970
:109A98001340FB60FA683B699A426BD13B681B79BB
:109AA800012B03D03B681B79022B34D17B689A6861
:109AB8007B695B00194603238B40DB431A407B68B4
:109AC8009A607B689A683B685B7919467B695B009A
